{
  "contractName": "CMC",
  "abi": [
    {
      "constant": false,
      "inputs": [],
      "name": "kill",
      "outputs": [],
      "payable": false,
      "stateMutability": "nonpayable",
      "type": "function"
    },
    {
      "constant": false,
      "inputs": [
        {
          "name": "identifier",
          "type": "bytes32"
        },
        {
          "name": "contractAddress",
          "type": "address"
        }
      ],
      "name": "addContract",
      "outputs": [],
      "payable": false,
      "stateMutability": "nonpayable",
      "type": "function"
    },
    {
      "constant": false,
      "inputs": [
        {
          "name": "identifier",
          "type": "bytes32"
        }
      ],
      "name": "removeContract",
      "outputs": [
        {
          "name": "",
          "type": "bool"
        }
      ],
      "payable": false,
      "stateMutability": "nonpayable",
      "type": "function"
    },
    {
      "constant": true,
      "inputs": [
        {
          "name": "name",
          "type": "bytes32"
        }
      ],
      "name": "getContract",
      "outputs": [
        {
          "name": "",
          "type": "address"
        }
      ],
      "payable": false,
      "stateMutability": "view",
      "type": "function"
    },
    {
      "payable": false,
      "stateMutability": "nonpayable",
      "type": "fallback"
    }
  ],
  "bytecode": "0x6060604052336000806101000a81548173ffffffffffffffffffffffffffffffffffffffff021916908373ffffffffffffffffffffffffffffffffffffffff160217905550610457806100536000396000f300606060405260043610610062576000357c0100000000000000000000000000000000000000000000000000000000900463ffffffff16806341c0e1b5146100725780635188f99614610087578063a43e04d8146100cd578063e16c7d981461010c575b341561006d57600080fd5b600080fd5b341561007d57600080fd5b610085610173565b005b341561009257600080fd5b6100cb60048080356000191690602001909190803573ffffffffffffffffffffffffffffffffffffffff16906020019091905050610208565b005b34156100d857600080fd5b6100f26004808035600019169060200190919050506102c1565b604051808215151515815260200191505060405180910390f35b341561011757600080fd5b6101316004808035600019169060200190919050506103e6565b604051808273ffffffffffffffffffffffffffffffffffffffff1673ffffffffffffffffffffffffffffffffffffffff16815260200191505060405180910390f35b6000809054906101000a900473ffffffffffffffffffffffffffffffffffffffff1673ffffffffffffffffffffffffffffffffffffffff163373ffffffffffffffffffffffffffffffffffffffff161415156101ce57600080fd5b6000809054906101000a900473ffffffffffffffffffffffffffffffffffffffff1673ffffffffffffffffffffffffffffffffffffffff16ff5b6000809054906101000a900473ffffffffffffffffffffffffffffffffffffffff1673ffffffffffffffffffffffffffffffffffffffff163373ffffffffffffffffffffffffffffffffffffffff1614151561026357600080fd5b8060016000846000191660001916815260200190815260200160002060006101000a81548173ffffffffffffffffffffffffffffffffffffffff021916908373ffffffffffffffffffffffffffffffffffffffff1602179055505050565b60008060009054906101000a900473ffffffffffffffffffffffffffffffffffffffff1673ffffffffffffffffffffffffffffffffffffffff163373ffffffffffffffffffffffffffffffffffffffff1614151561031e57600080fd5b600060016000846000191660001916815260200190815260200160002060009054906101000a900473ffffffffffffffffffffffffffffffffffffffff1673ffffffffffffffffffffffffffffffffffffffff16141561038157600090506103e1565b600060016000846000191660001916815260200190815260200160002060006101000a81548173ffffffffffffffffffffffffffffffffffffffff021916908373ffffffffffffffffffffffffffffffffffffffff160217905550600190505b919050565b600060016000836000191660001916815260200190815260200160002060009054906101000a900473ffffffffffffffffffffffffffffffffffffffff1690509190505600a165627a7a723058207e3db60e3efadaf81d9513ba31c46c6e2223d1389b055654fffbda52b60e8b110029",
  "source": "pragma solidity ^0.4.17;\r\n\r\ncontract Restricted {\r\n    address owner;\r\n    \r\n    function Restricted() public {\r\n        owner = msg.sender;\r\n    }\r\n    \r\n    modifier onlyOwner() {\r\n        require(msg.sender == owner);\r\n        _;\r\n    }\r\n    \r\n    modifier onlyBy(address account) {\r\n        require(msg.sender == account);\r\n        _;\r\n    }\r\n}\r\n\r\ncontract Mortal is Restricted {\r\n    function kill() onlyOwner public {\r\n        selfdestruct(owner);\r\n    }\r\n}\r\n\r\ncontract Rejector {\r\n    function () public {\r\n        revert();\r\n    }\r\n}\r\n\r\ncontract CMC is Mortal, Rejector {\r\n    mapping (bytes32 => address) _contracts;\r\n    \r\n    function addContract(bytes32 identifier, address contractAddress) public onlyOwner {\r\n        _contracts[identifier] = contractAddress;\r\n    }\r\n    \r\n    function removeContract(bytes32 identifier) public onlyOwner returns (bool) {\r\n        if (_contracts[identifier] == 0x0) return false;\r\n        \r\n        _contracts[identifier] = 0x0;\r\n        return true;\r\n    }\r\n    \r\n    function getContract(bytes32 name) public view returns (address) {\r\n        return _contracts[name];\r\n    }\r\n}\r\n\r\ncontract CMCEnabled is Mortal, Rejector {    \r\n    address cmc;\r\n    \r\n    function setCMC(address cmc_) public onlyOwner returns (bool) {\r\n        if (cmc != 0x0 && msg.sender != cmc_) return false;\r\n        \r\n        cmc = cmc_;\r\n        return true;\r\n    }\r\n    \r\n    function getContract(bytes32 identifier) internal view returns (address) {\r\n        return CMC(cmc).getContract(identifier);\r\n    }\r\n}\r\n\r\ncontract DocumentStore is CMCEnabled {\r\n    bytes32 public DBIdentifier;\r\n\r\n    function setDBIdentifier(bytes32 identifier) public {\r\n        DBIdentifier = identifier;\r\n    }\r\n\r\n    function getDB() internal view returns (DocumentStoreDB) {\r\n        return DocumentStoreDB(getContract(DBIdentifier));\r\n    }\r\n\r\n    function register(bytes32 documentHash, bytes32 title, bytes32 author) public returns (bool) {\r\n        return getDB().register(documentHash, title, author);\r\n    }\r\n\r\n    function getByHash(bytes32 requestedHash) public view returns (bytes32 documentHash, bytes32 title, bytes32 author) {\r\n        return getDB().getByHash(requestedHash);\r\n    }\r\n\r\n    function getByAuthor(bytes32 author) public view returns (bytes32[25] documentHashes, bytes32[25] titles, bytes32[25] authors) {\r\n        return getDB().getByAuthor(author);\r\n    }\r\n}\r\n\r\ncontract DocumentStoreDB is CMCEnabled {\r\n\r\n    struct Document {\r\n        bytes32 documentHash;\r\n        bytes32 title;\r\n        bytes32 author;\r\n    }\r\n\r\n    mapping (bytes32 => Document) _documentsByHash;\r\n    mapping (bytes32 => Document[]) _documentsByAuthor;\r\n    Document[] _documents;\r\n    \r\n    function register(bytes32 documentHash, bytes32 title, bytes32 author) public returns (bool) {\r\n        if (_documentsByHash[documentHash].documentHash != 0x0) return false; // Already registered, we can abort early.\r\n\r\n        // Not registered yet, compose a document and store it in the lookups.\r\n        Document memory document = Document({ documentHash: documentHash, title: title, author: author });\r\n        _documentsByHash[documentHash] = document;\r\n        _documentsByAuthor[author].push(document);\r\n        _documents.push(document);\r\n        return true;\r\n    }\r\n\r\n    function getByHash(bytes32 requestedHash) public view returns (bytes32 documentHash, bytes32 title, bytes32 author) {\r\n        Document memory document = _documentsByHash[requestedHash];\r\n\r\n        documentHash = document.documentHash;\r\n        title = document.title;\r\n        author = document.author;\r\n    }\r\n\r\n    function getByAuthor(bytes32 requestedAuthor) public view returns (bytes32[25] documentHashes, bytes32[25] titles, bytes32[25] authors) {\r\n        Document[] memory documents = _documentsByAuthor[requestedAuthor];\r\n\r\n        for(uint i = 0; i < documents.length; i++) {\r\n            documentHashes[i] = documents[i].documentHash;\r\n            titles[i] = documents[i].title;\r\n            authors[i] = documents[i].author;\r\n        }\r\n    }\r\n}",
  "sourcePath": "C:\\Users\\nick\\Documents\\Howest\\Nick\\BDA-SEM2\\Blockchain Development II\\Taken\\DocumentStore\\contracts\\DocumentStore.sol",
  "compiler": {
    "name": "solc",
    "version": "0.4.18+commit.9cf6e910.Emscripten.clang"
  },
  "schemaVersion": "1.0.1",
  "updatedAt": "2018-04-06T20:39:31.700Z"
}