{
  "contractName": "ContractProvider",
  "abi": [
    {
      "constant": true,
      "inputs": [
        {
          "name": "",
          "type": "bytes32"
        }
      ],
      "name": "contracts",
      "outputs": [
        {
          "name": "",
          "type": "address"
        }
      ],
      "payable": false,
      "stateMutability": "pure",
      "type": "function"
    }
  ],
  "bytecode": "0x6060604052341561000f57600080fd5b60db8061001d6000396000f300606060405260043610603f576000357c0100000000000000000000000000000000000000000000000000000000900463ffffffff168063ec56a373146044575b600080fd5b3415604e57600080fd5b606660048080356000191690602001909190505060a8565b604051808273ffffffffffffffffffffffffffffffffffffffff1673ffffffffffffffffffffffffffffffffffffffff16815260200191505060405180910390f35b60009190505600a165627a7a723058209689408b70735e4ad14e1c62288c4887f00093d6161001e2a8d6207952fd53100029",
  "source": "pragma solidity ^0.4.17;\n\ncontract ContractProvider {\n  function contracts(bytes32) public pure returns (address) {}\n}\n",
  "sourcePath": "C:\\Users\\nick\\Documents\\Howest\\Nick\\BDA-SEM2\\Blockchain Development II\\Taken\\DocumentStore\\DocumentStore\\contracts\\ContractProvider.sol",
  "compiler": {
    "name": "solc",
    "version": "0.4.19+commit.c4cbbb05.Emscripten.clang"
  },
  "schemaVersion": "2.0.0",
  "updatedAt": "2018-04-13T19:02:22.508Z"
}