{
  "contractName": "DocumentStore",
  "abi": [
    {
      "constant": false,
      "inputs": [
        {
          "name": "dougAddr",
          "type": "address"
        }
      ],
      "name": "setDougAddress",
      "outputs": [
        {
          "name": "result",
          "type": "bool"
        }
      ],
      "payable": false,
      "stateMutability": "nonpayable",
      "type": "function"
    },
    {
      "constant": false,
      "inputs": [],
      "name": "remove",
      "outputs": [],
      "payable": false,
      "stateMutability": "nonpayable",
      "type": "function"
    },
    {
      "anonymous": false,
      "inputs": [
        {
          "indexed": false,
          "name": "succes",
          "type": "bool"
        },
        {
          "indexed": false,
          "name": "docHash",
          "type": "bytes32"
        }
      ],
      "name": "DocumentRegistered",
      "type": "event"
    },
    {
      "constant": true,
      "inputs": [
        {
          "name": "docHash",
          "type": "bytes32"
        }
      ],
      "name": "isDocumentRegistered",
      "outputs": [
        {
          "name": "",
          "type": "bool"
        },
        {
          "name": "",
          "type": "bytes32"
        },
        {
          "name": "",
          "type": "bytes32"
        },
        {
          "name": "",
          "type": "bytes32"
        },
        {
          "name": "",
          "type": "bytes32"
        }
      ],
      "payable": false,
      "stateMutability": "view",
      "type": "function"
    },
    {
      "constant": false,
      "inputs": [
        {
          "name": "docHash",
          "type": "bytes32"
        },
        {
          "name": "title",
          "type": "bytes32"
        },
        {
          "name": "releaseDate",
          "type": "bytes32"
        },
        {
          "name": "authorName",
          "type": "bytes32"
        },
        {
          "name": "authorMail",
          "type": "bytes32"
        }
      ],
      "name": "registerDocument",
      "outputs": [
        {
          "name": "",
          "type": "bool"
        }
      ],
      "payable": false,
      "stateMutability": "nonpayable",
      "type": "function"
    },
    {
      "constant": false,
      "inputs": [
        {
          "name": "docHash",
          "type": "bytes32"
        },
        {
          "name": "title",
          "type": "bytes32"
        },
        {
          "name": "releaseDate",
          "type": "bytes32"
        },
        {
          "name": "authorName",
          "type": "bytes32"
        },
        {
          "name": "authorMail",
          "type": "bytes32"
        }
      ],
      "name": "registerDocumentAsm",
      "outputs": [
        {
          "name": "",
          "type": "bool"
        }
      ],
      "payable": false,
      "stateMutability": "nonpayable",
      "type": "function"
    },
    {
      "constant": true,
      "inputs": [
        {
          "name": "authorName",
          "type": "bytes32"
        }
      ],
      "name": "getAmountOfDocumentsFromAuthor",
      "outputs": [
        {
          "name": "nrOfDocuments",
          "type": "uint256"
        }
      ],
      "payable": false,
      "stateMutability": "view",
      "type": "function"
    },
    {
      "constant": true,
      "inputs": [
        {
          "name": "authorName",
          "type": "bytes32"
        },
        {
          "name": "startIndex",
          "type": "uint256"
        },
        {
          "name": "endIndex",
          "type": "uint256"
        }
      ],
      "name": "getDocumentListFromAuthor",
      "outputs": [
        {
          "name": "authorMail",
          "type": "bytes32"
        },
        {
          "name": "titles",
          "type": "bytes32[10]"
        },
        {
          "name": "releaseDates",
          "type": "bytes32[10]"
        }
      ],
      "payable": false,
      "stateMutability": "view",
      "type": "function"
    },
    {
      "constant": true,
      "inputs": [
        {
          "name": "authorName",
          "type": "bytes32"
        },
        {
          "name": "startIndex",
          "type": "uint256"
        },
        {
          "name": "endIndex",
          "type": "uint256"
        }
      ],
      "name": "getDocumentListFromAuthorAsm",
      "outputs": [
        {
          "name": "authorMail",
          "type": "bytes32"
        },
        {
          "name": "titles",
          "type": "bytes32[10]"
        },
        {
          "name": "releaseDates",
          "type": "bytes32[10]"
        }
      ],
      "payable": false,
      "stateMutability": "view",
      "type": "function"
    }
  ],
  "bytecode": "0x6060604052341561000f57600080fd5b61144e8061001e6000396000f30060606040526004361061008e576000357c0100000000000000000000000000000000000000000000000000000000900463ffffffff1680630a473266146100935780633b55ef3414610146578063618e6ce6146101f957806380e2653e14610274578063818adeef146102c55780639c4a27d714610300578063a7f4377914610373578063b67530a414610388575b600080fd5b341561009e57600080fd5b6100ca6004808035600019169060200190919080359060200190919080359060200190919050506103fb565b60405180846000191660001916815260200183600a60200280838360005b838110156101035780820151818401526020810190506100e8565b5050505090500182600a60200280838360005b83811015610131578082015181840152602081019050610116565b50505050905001935050505060405180910390f35b341561015157600080fd5b61017d6004808035600019169060200190919080359060200190919080359060200190919050506105fb565b60405180846000191660001916815260200183600a60200280838360005b838110156101b657808201518184015260208101905061019b565b5050505090500182600a60200280838360005b838110156101e45780820151818401526020810190506101c9565b50505050905001935050505060405180910390f35b341561020457600080fd5b61021e6004808035600019169060200190919050506108e7565b604051808615151515815260200185600019166000191681526020018460001916600019168152602001836000191660001916815260200182600019166000191681526020019550505050505060405180910390f35b341561027f57600080fd5b6102ab600480803573ffffffffffffffffffffffffffffffffffffffff16906020019091905050610b3f565b604051808215151515815260200191505060405180910390f35b34156102d057600080fd5b6102ea600480803560001916906020019091905050610c2d565b6040518082815260200191505060405180910390f35b341561030b57600080fd5b61035960048080356000191690602001909190803560001916906020019091908035600019169060200190919080356000191690602001909190803560001916906020019091905050610da2565b604051808215151515815260200191505060405180910390f35b341561037e57600080fd5b610386610fc0565b005b341561039357600080fd5b6103e160048080356000191690602001909190803560001916906020019091908035600019169060200190919080356000191690602001909190803560001916906020019091905050611051565b604051808215151515815260200191505060405180910390f35b60006104056113a5565b61040d6113a5565b6000806000809054906101000a900473ffffffffffffffffffffffffffffffffffffffff1673ffffffffffffffffffffffffffffffffffffffff161415151561045557600080fd5b6000809054906101000a900473ffffffffffffffffffffffffffffffffffffffff1673ffffffffffffffffffffffffffffffffffffffff1663ec56a3736000604051602001526040518163ffffffff167c010000000000000000000000000000000000000000000000000000000002815260040180807f646f63756d656e746d616e6167657200000000000000000000000000000000008152506020019050602060405180830381600087803b151561050d57600080fd5b6102c65a03f1151561051e57600080fd5b5050506040518051905090508073ffffffffffffffffffffffffffffffffffffffff163373ffffffffffffffffffffffffffffffffffffffff1614151561056457600080fd5b600a86860310151561057557600080fd5b8660005260016020526040600020806000526020600020875b600188018110156105e55760018102820154806000526002602052604060002060008314156105bf57600381015498505b805460208c850302890152600181015460208c850302880152505060018101905061058e565b5050508383839350935093505093509350939050565b60006106056113a5565b61060d6113a5565b60008060008060009054906101000a900473ffffffffffffffffffffffffffffffffffffffff1673ffffffffffffffffffffffffffffffffffffffff161415151561065757600080fd5b6000809054906101000a900473ffffffffffffffffffffffffffffffffffffffff1673ffffffffffffffffffffffffffffffffffffffff1663ec56a3736000604051602001526040518163ffffffff167c010000000000000000000000000000000000000000000000000000000002815260040180807f646f63756d656e746d616e6167657200000000000000000000000000000000008152506020019050602060405180830381600087803b151561070f57600080fd5b6102c65a03f1151561072057600080fd5b5050506040518051905090508073ffffffffffffffffffffffffffffffffffffffff163373ffffffffffffffffffffffffffffffffffffffff1614151561076657600080fd5b600a87870310151561077757600080fd5b60026000600160008b6000191660001916815260200190815260200160002060008154811015156107a457fe5b906000526020600020900154600019166000191681526020019081526020016000206002016001015494508691505b85821115156108d35760026000600160008b600019166000191681526020019081526020016000208481548110151561080857fe5b906000526020600020900154600019166000191681526020019081526020016000206000015484888403600a8110151561083e57fe5b6020020190600019169081600019168152505060026000600160008b600019166000191681526020019081526020016000208481548110151561087d57fe5b906000526020600020900154600019166000191681526020019081526020016000206001015483888403600a811015156108b357fe5b6020020190600019169081600019168152505081806001019250506107d3565b848484945094509450505093509350939050565b60008060008060008060008060009054906101000a900473ffffffffffffffffffffffffffffffffffffffff1673ffffffffffffffffffffffffffffffffffffffff161415151561093757600080fd5b6000809054906101000a900473ffffffffffffffffffffffffffffffffffffffff1673ffffffffffffffffffffffffffffffffffffffff1663ec56a3736000604051602001526040518163ffffffff167c010000000000000000000000000000000000000000000000000000000002815260040180807f646f63756d656e746d616e6167657200000000000000000000000000000000008152506020019050602060405180830381600087803b15156109ef57600080fd5b6102c65a03f11515610a0057600080fd5b5050506040518051905090508073ffffffffffffffffffffffffffffffffffffffff163373ffffffffffffffffffffffffffffffffffffffff16141515610a4657600080fd5b60026000886000191660001916815260200190815260200160002060040160009054906101000a900460ff1615610b0a57600160026000896000191660001916815260200190815260200160002060000154600260008a6000191660001916815260200190815260200160002060010154600260008b6000191660001916815260200190815260200160002060020160000154600260008c600019166000191681526020019081526020016000206002016001015495509550955095509550610b35565b6000806000806000836001029350826001029250816001029150806001029050955095509550955095505b5091939590929450565b6000806000809054906101000a900473ffffffffffffffffffffffffffffffffffffffff1673ffffffffffffffffffffffffffffffffffffffff1614158015610bd557506000809054906101000a900473ffffffffffffffffffffffffffffffffffffffff1673ffffffffffffffffffffffffffffffffffffffff163373ffffffffffffffffffffffffffffffffffffffff1614155b15610be35760009050610c28565b816000806101000a81548173ffffffffffffffffffffffffffffffffffffffff021916908373ffffffffffffffffffffffffffffffffffffffff160217905550600190505b919050565b60008060008060009054906101000a900473ffffffffffffffffffffffffffffffffffffffff1673ffffffffffffffffffffffffffffffffffffffff1614151515610c7757600080fd5b6000809054906101000a900473ffffffffffffffffffffffffffffffffffffffff1673ffffffffffffffffffffffffffffffffffffffff1663ec56a3736000604051602001526040518163ffffffff167c010000000000000000000000000000000000000000000000000000000002815260040180807f646f63756d656e746d616e6167657200000000000000000000000000000000008152506020019050602060405180830381600087803b1515610d2f57600080fd5b6102c65a03f11515610d4057600080fd5b5050506040518051905090508073ffffffffffffffffffffffffffffffffffffffff163373ffffffffffffffffffffffffffffffffffffffff16141515610d8657600080fd5b8260005260016020526040600020805492505081915050919050565b6000806000806000809054906101000a900473ffffffffffffffffffffffffffffffffffffffff1673ffffffffffffffffffffffffffffffffffffffff1614151515610ded57600080fd5b6000809054906101000a900473ffffffffffffffffffffffffffffffffffffffff1673ffffffffffffffffffffffffffffffffffffffff1663ec56a3736000604051602001526040518163ffffffff167c010000000000000000000000000000000000000000000000000000000002815260040180807f646f63756d656e746d616e6167657200000000000000000000000000000000008152506020019050602060405180830381600087803b1515610ea557600080fd5b6102c65a03f11515610eb657600080fd5b5050506040518051905090508073ffffffffffffffffffffffffffffffffffffffff163373ffffffffffffffffffffffffffffffffffffffff16141515610efc57600080fd5b60009150846000526001602052604060002080548160005260206000208a60005260026020526040600020600060048201541415610f63576001830184558b600184028301558a815589600182015588600282015587600382015560016004820155600195505b505050507f835b3b92758f7950f0bcdf052ba38753635dc77d2e3b42bd627eab5e7bcc18ba8289604051808315151515815260200182600019166000191681526020019250505060405180910390a1819250505095945050505050565b6000809054906101000a900473ffffffffffffffffffffffffffffffffffffffff1673ffffffffffffffffffffffffffffffffffffffff163373ffffffffffffffffffffffffffffffffffffffff16141561104f576000809054906101000a900473ffffffffffffffffffffffffffffffffffffffff1673ffffffffffffffffffffffffffffffffffffffff16ff5b565b60008060008060009054906101000a900473ffffffffffffffffffffffffffffffffffffffff1673ffffffffffffffffffffffffffffffffffffffff161415151561109b57600080fd5b6000809054906101000a900473ffffffffffffffffffffffffffffffffffffffff1673ffffffffffffffffffffffffffffffffffffffff1663ec56a3736000604051602001526040518163ffffffff167c010000000000000000000000000000000000000000000000000000000002815260040180807f646f63756d656e746d616e6167657200000000000000000000000000000000008152506020019050602060405180830381600087803b151561115357600080fd5b6102c65a03f1151561116457600080fd5b5050506040518051905090508073ffffffffffffffffffffffffffffffffffffffff163373ffffffffffffffffffffffffffffffffffffffff161415156111aa57600080fd5b60026000886000191660001916815260200190815260200160002060040160009054906101000a900460ff1615611230577f835b3b92758f7950f0bcdf052ba38753635dc77d2e3b42bd627eab5e7bcc18ba600088604051808315151515815260200182600019166000191681526020019250505060405180910390a16000915061139b565b6080604051908101604052808760001916815260200186600019168152602001604080519081016040528087600019168152602001866000191681525081526020016001151581525060026000896000191660001916815260200190815260200160002060008201518160000190600019169055602082015181600101906000191690556040820151816002016000820151816000019060001916905560208201518160010190600019169055505060608201518160040160006101000a81548160ff021916908315150217905550905050600160008560001916600019168152602001908152602001600020805480600101828161132f91906113d1565b9160005260206000209001600089909190915090600019169055507f835b3b92758f7950f0bcdf052ba38753635dc77d2e3b42bd627eab5e7bcc18ba600188604051808315151515815260200182600019166000191681526020019250505060405180910390a1600191505b5095945050505050565b61014060405190810160405280600a905b60008019168152602001906001900390816113b65790505090565b8154818355818115116113f8578183600052602060002091820191016113f791906113fd565b5b505050565b61141f91905b8082111561141b576000816000905550600101611403565b5090565b905600a165627a7a723058207e276860a2702574aa9e74a459e6815750224fb1444b9cb316047183a11b03510029",
  "source": "pragma solidity ^0.4.19;\r\n\r\nimport \"./DocumentBase.sol\";\r\nimport \"./ContractProvider.sol\";\r\n\r\ncontract DocumentStore is DocumentBase {\r\n\r\n    event DocumentRegistered(bool succes, bytes32 docHash);\r\n\r\n    struct Author {\r\n        bytes32 name;\r\n        bytes32 mail;\r\n    }\r\n\r\n    struct Document {\r\n        bytes32 title;\r\n        bytes32 releaseDate;\r\n        Author author;\r\n        bool isEntity;\r\n    }\r\n\r\n    mapping(bytes32 => bytes32[]) private documentsOfAuthor; //documentsOfAuthor[authorName] = array of docHashes\r\n    mapping(bytes32 => Document) private documents; //documents[docHash] = Document\r\n\r\n    modifier onlyByDocumentManager() {        \r\n        require(DOUG != 0x0);\r\n        address documentManager = ContractProvider(DOUG).contracts(\"documentmanager\");\r\n        require(msg.sender == documentManager);\r\n\r\n        _;\r\n    }\r\n\r\n    function isDocumentRegistered(bytes32 docHash) onlyByDocumentManager external constant returns (bool, bytes32, bytes32, bytes32, bytes32) {\r\n        if (documents[docHash].isEntity)\r\n            return (true, documents[docHash].title, documents[docHash].releaseDate, documents[docHash].author.name, documents[docHash].author.mail);\r\n        else\r\n            return (false, 0x0, 0x0, 0x0, 0x0);\r\n    }\r\n\r\n    //return if registration was succesful\r\n    function registerDocument(bytes32 docHash, bytes32 title, bytes32 releaseDate, bytes32 authorName, bytes32 authorMail) onlyByDocumentManager external returns (bool) {\r\n        if (documents[docHash].isEntity) {\r\n            DocumentRegistered(false, docHash);\r\n            return false;\r\n        } else {\r\n            documents[docHash] = Document(title, releaseDate, Author(authorName, authorMail), true);\r\n            documentsOfAuthor[authorName].push(docHash);\r\n            DocumentRegistered(true, docHash);\r\n            return true;\r\n        }\r\n    }\r\n\r\n    //return if registration was succesful\r\n    function registerDocumentAsm(bytes32 docHash, bytes32 title, bytes32 releaseDate, bytes32 authorName, bytes32 authorMail) onlyByDocumentManager external returns (bool) {\r\n        bool succes = false;\r\n\r\n        assembly {\r\n            mstore(0x0, authorName)\r\n            mstore(0x20, 0x1)                       //skip DOUG byte\r\n            let docauth := keccak256(0x0, 0x40) \t  //documentsOfAuthor[authorName]\r\n            let nrOfDocuments := sload(docauth)\r\n\r\n            mstore(0x0, docauth)\r\n            let docauth0 := keccak256(0x0, 0x20)   //address of documentsOfAuthor[authorName][0]\r\n\r\n            mstore(0x0, docHash)\r\n            mstore(0x20, 0x2)                      //skip DOUG byte + first mapping\r\n            let doc := keccak256(0x0, 0x40)        //address of documents[docHash]\r\n            \r\n            if eq(sload(add(doc, 0x4)), 0) {                            //doesn't exists\r\n                sstore(docauth, add(nrOfDocuments, 1))                  //store amount of documents\r\n                sstore(add(docauth0, mul(nrOfDocuments, 0x1)), docHash) //store dochash\r\n                sstore(doc, title)                            //store document\r\n                sstore(add(doc, 0x1), releaseDate)\r\n                sstore(add(doc, 0x2), authorName)\r\n                sstore(add(doc, 0x3), authorMail)\r\n                sstore(add(doc, 0x4), 1)\r\n                succes := 1\r\n            }\r\n        }\r\n\r\n        DocumentRegistered(succes, docHash);\r\n        return (succes);\r\n    }\r\n\r\n    function getAmountOfDocumentsFromAuthor(bytes32 authorName) onlyByDocumentManager external constant returns(uint256 nrOfDocuments) {\r\n        assembly {\r\n            mstore(0x0, authorName)\r\n            mstore(0x20, 0x1)                        //skip DOUG byte\r\n            let docauth := keccak256(0x0, 0x40) \t   //documentsOfAuthor[authorName]\r\n            nrOfDocuments := sload(docauth)\r\n        }\r\n\r\n        return nrOfDocuments;\r\n    }\r\n\r\n    //no check on correct indices => responsability of frontend\r\n    function getDocumentListFromAuthor(bytes32 authorName, uint256 startIndex, uint256 endIndex) onlyByDocumentManager external constant returns (bytes32 authorMail, bytes32[pageSize] memory titles, bytes32[pageSize] memory releaseDates) {\r\n        require(endIndex - startIndex < 10);\r\n\r\n        authorMail = documents[documentsOfAuthor[authorName][0]].author.mail;\r\n        for (uint256 i = startIndex; i <= endIndex; i++) {\r\n            titles[i-startIndex] = documents[documentsOfAuthor[authorName][i]].title;\r\n            releaseDates[i-startIndex] = documents[documentsOfAuthor[authorName][i]].releaseDate;\r\n        }\r\n\r\n        return (authorMail, titles, releaseDates);\r\n    }\r\n\r\n    //no check on correct indices => responsability of frontend\r\n    function getDocumentListFromAuthorAsm(bytes32 authorName, uint256 startIndex, uint256 endIndex) onlyByDocumentManager external constant returns (bytes32 authorMail, bytes32[pageSize] memory titles, bytes32[pageSize] memory releaseDates) {\r\n        require(endIndex - startIndex < 10);\r\n\r\n        assembly {\r\n            mstore(0x0, authorName)\r\n            mstore(0x20, 0x1)                        //skip DOUG byte\r\n            let docauth := keccak256(0x0, 0x40) \t   //documentsOfAuthor[authorName]\r\n            //nrOfDocuments := sload(docauth)        //length not needed\r\n\r\n            mstore(0x0, docauth)\r\n            let docauth0 := keccak256(0x0, 0x20)  //address of documentsOfAuthor[authorName][0]\r\n\r\n            for\r\n                { let i := startIndex }\r\n                lt(i, add(endIndex, 1))\r\n                { i := add(i, 1) }\r\n            {\r\n                let docHash := sload(add(docauth0, mul(i, 0x1)))\r\n\r\n                mstore(0x0, docHash)                   //store docHash to memory\r\n                mstore(0x20, 0x2)           //skip doug byte + first mapping\r\n                let doc := keccak256(0x0, 0x40)        //address of documents[docHash]\r\n\r\n                if eq(i, 0) { authorMail := sload(add(doc, 0x3)) }  //+2 for Author Struct, +1 for second byte\r\n\r\n                mstore(add(titles, mul(sub(i, startIndex), 0x20)), sload(doc))\r\n                mstore(add(releaseDates, mul(sub(i, startIndex), 0x20)), sload(add(doc, 0x1)))\r\n            }\r\n        }\r\n\r\n        return (authorMail, titles, releaseDates);\r\n    }\r\n}",
  "sourcePath": "C:\\Users\\nick\\Documents\\Howest\\Nick\\BDA-SEM2\\Blockchain Development II\\Taken\\DocumentStore\\contracts\\DocumentStore.sol",
  "compiler": {
    "name": "solc",
    "version": "0.4.19+commit.c4cbbb05.Emscripten.clang"
  },
  "schemaVersion": "2.0.0",
  "updatedAt": "2018-04-10T20:30:25.697Z"
}