{
  "contractName": "DocumentStore",
  "abi": [
    {
      "constant": false,
      "inputs": [
        {
          "name": "dougAddr",
          "type": "address"
        }
      ],
      "name": "setDougAddress",
      "outputs": [
        {
          "name": "result",
          "type": "bool"
        }
      ],
      "payable": false,
      "stateMutability": "nonpayable",
      "type": "function"
    },
    {
      "constant": true,
      "inputs": [],
      "name": "pageSize",
      "outputs": [
        {
          "name": "",
          "type": "uint256"
        }
      ],
      "payable": false,
      "stateMutability": "view",
      "type": "function"
    },
    {
      "constant": false,
      "inputs": [],
      "name": "remove",
      "outputs": [],
      "payable": false,
      "stateMutability": "nonpayable",
      "type": "function"
    },
    {
      "anonymous": false,
      "inputs": [
        {
          "indexed": false,
          "name": "succes",
          "type": "bool"
        },
        {
          "indexed": false,
          "name": "docHash",
          "type": "bytes32"
        }
      ],
      "name": "DocumentRegistered",
      "type": "event"
    },
    {
      "constant": true,
      "inputs": [
        {
          "name": "docHash",
          "type": "bytes32"
        }
      ],
      "name": "isDocumentRegistered",
      "outputs": [
        {
          "name": "",
          "type": "bool"
        },
        {
          "name": "",
          "type": "bytes32"
        },
        {
          "name": "",
          "type": "bytes32"
        },
        {
          "name": "",
          "type": "bytes32"
        },
        {
          "name": "",
          "type": "bytes32"
        }
      ],
      "payable": false,
      "stateMutability": "view",
      "type": "function"
    },
    {
      "constant": false,
      "inputs": [
        {
          "name": "docHash",
          "type": "bytes32"
        },
        {
          "name": "title",
          "type": "bytes32"
        },
        {
          "name": "releaseDate",
          "type": "bytes32"
        },
        {
          "name": "authorName",
          "type": "bytes32"
        },
        {
          "name": "authorMail",
          "type": "bytes32"
        }
      ],
      "name": "registerDocument",
      "outputs": [
        {
          "name": "",
          "type": "bool"
        }
      ],
      "payable": false,
      "stateMutability": "nonpayable",
      "type": "function"
    },
    {
      "constant": false,
      "inputs": [
        {
          "name": "docHash",
          "type": "bytes32"
        },
        {
          "name": "title",
          "type": "bytes32"
        },
        {
          "name": "releaseDate",
          "type": "bytes32"
        },
        {
          "name": "authorName",
          "type": "bytes32"
        },
        {
          "name": "authorMail",
          "type": "bytes32"
        }
      ],
      "name": "registerDocumentAsm",
      "outputs": [
        {
          "name": "",
          "type": "bool"
        }
      ],
      "payable": false,
      "stateMutability": "nonpayable",
      "type": "function"
    },
    {
      "constant": true,
      "inputs": [
        {
          "name": "authorName",
          "type": "bytes32"
        }
      ],
      "name": "getAmountOfDocumentsFromAuthor",
      "outputs": [
        {
          "name": "nrOfDocuments",
          "type": "uint256"
        }
      ],
      "payable": false,
      "stateMutability": "view",
      "type": "function"
    },
    {
      "constant": true,
      "inputs": [
        {
          "name": "authorName",
          "type": "bytes32"
        },
        {
          "name": "startIndex",
          "type": "uint256"
        },
        {
          "name": "endIndex",
          "type": "uint256"
        }
      ],
      "name": "getDocumentListFromAuthor",
      "outputs": [
        {
          "name": "authorMail",
          "type": "bytes32"
        },
        {
          "name": "titles",
          "type": "bytes32[10]"
        },
        {
          "name": "releaseDates",
          "type": "bytes32[10]"
        }
      ],
      "payable": false,
      "stateMutability": "view",
      "type": "function"
    },
    {
      "constant": true,
      "inputs": [
        {
          "name": "authorName",
          "type": "bytes32"
        },
        {
          "name": "startIndex",
          "type": "uint256"
        },
        {
          "name": "endIndex",
          "type": "uint256"
        }
      ],
      "name": "getDocumentListFromAuthorAsm",
      "outputs": [
        {
          "name": "authorMail",
          "type": "bytes32"
        },
        {
          "name": "titles",
          "type": "bytes32[10]"
        },
        {
          "name": "releaseDates",
          "type": "bytes32[10]"
        }
      ],
      "payable": false,
      "stateMutability": "view",
      "type": "function"
    }
  ],
  "bytecode": "0x6060604052341561000f57600080fd5b6114448061001e6000396000f300606060405260043610610099576000357c0100000000000000000000000000000000000000000000000000000000900463ffffffff1680630a4732661461009e5780633b55ef3414610151578063618e6ce61461020457806380e2653e1461027f578063818adeef146102d057806394490e9a1461030b5780639c4a27d714610334578063a7f43779146103a7578063b67530a4146103bc575b600080fd5b34156100a957600080fd5b6100d560048080356000191690602001909190803590602001909190803590602001909190505061042f565b60405180846000191660001916815260200183600a60200280838360005b8381101561010e5780820151818401526020810190506100f3565b5050505090500182600a60200280838360005b8381101561013c578082015181840152602081019050610121565b50505050905001935050505060405180910390f35b341561015c57600080fd5b610188600480803560001916906020019091908035906020019091908035906020019091905050610631565b60405180846000191660001916815260200183600a60200280838360005b838110156101c15780820151818401526020810190506101a6565b5050505090500182600a60200280838360005b838110156101ef5780820151818401526020810190506101d4565b50505050905001935050505060405180910390f35b341561020f57600080fd5b61022960048080356000191690602001909190505061091d565b604051808615151515815260200185600019166000191681526020018460001916600019168152602001836000191660001916815260200182600019166000191681526020019550505050505060405180910390f35b341561028a57600080fd5b6102b6600480803573ffffffffffffffffffffffffffffffffffffffff16906020019091905050610b75565b604051808215151515815260200191505060405180910390f35b34156102db57600080fd5b6102f5600480803560001916906020019091905050610c63565b6040518082815260200191505060405180910390f35b341561031657600080fd5b61031e610ddc565b6040518082815260200191505060405180910390f35b341561033f57600080fd5b61038d60048080356000191690602001909190803560001916906020019091908035600019169060200190919080356000191690602001909190803560001916906020019091905050610de1565b604051808215151515815260200191505060405180910390f35b34156103b257600080fd5b6103ba611002565b005b34156103c757600080fd5b61041560048080356000191690602001909190803560001916906020019091908035600019169060200190919080356000191690602001909190803560001916906020019091905050611093565b604051808215151515815260200191505060405180910390f35b600061043961139b565b61044161139b565b6000806000809054906101000a900473ffffffffffffffffffffffffffffffffffffffff1673ffffffffffffffffffffffffffffffffffffffff161415151561048957600080fd5b6000809054906101000a900473ffffffffffffffffffffffffffffffffffffffff1673ffffffffffffffffffffffffffffffffffffffff1663ec56a3736000604051602001526040518163ffffffff167c010000000000000000000000000000000000000000000000000000000002815260040180807f646f63756d656e746d616e6167657200000000000000000000000000000000008152506020019050602060405180830381600087803b151561054157600080fd5b6102c65a03f1151561055257600080fd5b5050506040518051905090508073ffffffffffffffffffffffffffffffffffffffff163373ffffffffffffffffffffffffffffffffffffffff1614151561059857600080fd5b600a8686031015156105a957600080fd5b604051878152600160208201526040812080825260208220885b6001890181101561061a5760018102820154808552600260208601526040852060008314156105f457600381015499505b805460208d8503028a0152600181015460208d85030289015250506001810190506105c3565b505050508383839350935093505093509350939050565b600061063b61139b565b61064361139b565b60008060008060009054906101000a900473ffffffffffffffffffffffffffffffffffffffff1673ffffffffffffffffffffffffffffffffffffffff161415151561068d57600080fd5b6000809054906101000a900473ffffffffffffffffffffffffffffffffffffffff1673ffffffffffffffffffffffffffffffffffffffff1663ec56a3736000604051602001526040518163ffffffff167c010000000000000000000000000000000000000000000000000000000002815260040180807f646f63756d656e746d616e6167657200000000000000000000000000000000008152506020019050602060405180830381600087803b151561074557600080fd5b6102c65a03f1151561075657600080fd5b5050506040518051905090508073ffffffffffffffffffffffffffffffffffffffff163373ffffffffffffffffffffffffffffffffffffffff1614151561079c57600080fd5b600a8787031015156107ad57600080fd5b60026000600160008b6000191660001916815260200190815260200160002060008154811015156107da57fe5b906000526020600020900154600019166000191681526020019081526020016000206002016001015494508691505b85821115156109095760026000600160008b600019166000191681526020019081526020016000208481548110151561083e57fe5b906000526020600020900154600019166000191681526020019081526020016000206000015484888403600a8110151561087457fe5b6020020190600019169081600019168152505060026000600160008b60001916600019168152602001908152602001600020848154811015156108b357fe5b906000526020600020900154600019166000191681526020019081526020016000206001015483888403600a811015156108e957fe5b602002019060001916908160001916815250508180600101925050610809565b848484945094509450505093509350939050565b60008060008060008060008060009054906101000a900473ffffffffffffffffffffffffffffffffffffffff1673ffffffffffffffffffffffffffffffffffffffff161415151561096d57600080fd5b6000809054906101000a900473ffffffffffffffffffffffffffffffffffffffff1673ffffffffffffffffffffffffffffffffffffffff1663ec56a3736000604051602001526040518163ffffffff167c010000000000000000000000000000000000000000000000000000000002815260040180807f646f63756d656e746d616e6167657200000000000000000000000000000000008152506020019050602060405180830381600087803b1515610a2557600080fd5b6102c65a03f11515610a3657600080fd5b5050506040518051905090508073ffffffffffffffffffffffffffffffffffffffff163373ffffffffffffffffffffffffffffffffffffffff16141515610a7c57600080fd5b60026000886000191660001916815260200190815260200160002060040160009054906101000a900460ff1615610b4057600160026000896000191660001916815260200190815260200160002060000154600260008a6000191660001916815260200190815260200160002060010154600260008b6000191660001916815260200190815260200160002060020160000154600260008c600019166000191681526020019081526020016000206002016001015495509550955095509550610b6b565b6000806000806000836001029350826001029250816001029150806001029050955095509550955095505b5091939590929450565b6000806000809054906101000a900473ffffffffffffffffffffffffffffffffffffffff1673ffffffffffffffffffffffffffffffffffffffff1614158015610c0b57506000809054906101000a900473ffffffffffffffffffffffffffffffffffffffff1673ffffffffffffffffffffffffffffffffffffffff163373ffffffffffffffffffffffffffffffffffffffff1614155b15610c195760009050610c5e565b816000806101000a81548173ffffffffffffffffffffffffffffffffffffffff021916908373ffffffffffffffffffffffffffffffffffffffff160217905550600190505b919050565b60008060008060009054906101000a900473ffffffffffffffffffffffffffffffffffffffff1673ffffffffffffffffffffffffffffffffffffffff1614151515610cad57600080fd5b6000809054906101000a900473ffffffffffffffffffffffffffffffffffffffff1673ffffffffffffffffffffffffffffffffffffffff1663ec56a3736000604051602001526040518163ffffffff167c010000000000000000000000000000000000000000000000000000000002815260040180807f646f63756d656e746d616e6167657200000000000000000000000000000000008152506020019050602060405180830381600087803b1515610d6557600080fd5b6102c65a03f11515610d7657600080fd5b5050506040518051905090508073ffffffffffffffffffffffffffffffffffffffff163373ffffffffffffffffffffffffffffffffffffffff16141515610dbc57600080fd5b604051838152600160208201526040812080549350505081915050919050565b600a81565b6000806000806000809054906101000a900473ffffffffffffffffffffffffffffffffffffffff1673ffffffffffffffffffffffffffffffffffffffff1614151515610e2c57600080fd5b6000809054906101000a900473ffffffffffffffffffffffffffffffffffffffff1673ffffffffffffffffffffffffffffffffffffffff1663ec56a3736000604051602001526040518163ffffffff167c010000000000000000000000000000000000000000000000000000000002815260040180807f646f63756d656e746d616e6167657200000000000000000000000000000000008152506020019050602060405180830381600087803b1515610ee457600080fd5b6102c65a03f11515610ef557600080fd5b5050506040518051905090508073ffffffffffffffffffffffffffffffffffffffff163373ffffffffffffffffffffffffffffffffffffffff16141515610f3b57600080fd5b6000915060405185815260016020820152604081208054818352602083208b8452600260208501526040600020600060048201541415610fa4576001830184558c600184028301558b81558a600182015589600282015588600382015560016004820155600196505b50505050507f835b3b92758f7950f0bcdf052ba38753635dc77d2e3b42bd627eab5e7bcc18ba8289604051808315151515815260200182600019166000191681526020019250505060405180910390a1819250505095945050505050565b6000809054906101000a900473ffffffffffffffffffffffffffffffffffffffff1673ffffffffffffffffffffffffffffffffffffffff163373ffffffffffffffffffffffffffffffffffffffff161415611091576000809054906101000a900473ffffffffffffffffffffffffffffffffffffffff1673ffffffffffffffffffffffffffffffffffffffff16ff5b565b6000806000806000809054906101000a900473ffffffffffffffffffffffffffffffffffffffff1673ffffffffffffffffffffffffffffffffffffffff16141515156110de57600080fd5b6000809054906101000a900473ffffffffffffffffffffffffffffffffffffffff1673ffffffffffffffffffffffffffffffffffffffff1663ec56a3736000604051602001526040518163ffffffff167c010000000000000000000000000000000000000000000000000000000002815260040180807f646f63756d656e746d616e6167657200000000000000000000000000000000008152506020019050602060405180830381600087803b151561119657600080fd5b6102c65a03f115156111a757600080fd5b5050506040518051905090508073ffffffffffffffffffffffffffffffffffffffff163373ffffffffffffffffffffffffffffffffffffffff161415156111ed57600080fd5b6000915060026000896000191660001916815260200190815260200160002060040160009054906101000a900460ff1615156113425760806040519081016040528088600019168152602001876000191681526020016040805190810160405280886000191681526020018760001916815250815260200160011515815250600260008a6000191660001916815260200190815260200160002060008201518160000190600019169055602082015181600101906000191690556040820151816002016000820151816000019060001916905560208201518160010190600019169055505060608201518160040160006101000a81548160ff021916908315150217905550905050600160008660001916600019168152602001908152602001600020805480600101828161132291906113c7565b916000526020600020900160008a90919091509060001916905550600191505b7f835b3b92758f7950f0bcdf052ba38753635dc77d2e3b42bd627eab5e7bcc18ba8289604051808315151515815260200182600019166000191681526020019250505060405180910390a1819250505095945050505050565b61014060405190810160405280600a905b60008019168152602001906001900390816113ac5790505090565b8154818355818115116113ee578183600052602060002091820191016113ed91906113f3565b5b505050565b61141591905b808211156114115760008160009055506001016113f9565b5090565b905600a165627a7a7230582012bf23edf47ae6105a45eaaa10e691d6a89b17e45450c425c532d37b02f9b0760029",
  "source": "pragma solidity ^0.4.17;\n\nimport \"./DocumentBase.sol\";\nimport \"./ContractProvider.sol\";\n\ncontract DocumentStore is DocumentBase {\n\n    event DocumentRegistered(bool succes, bytes32 docHash);\n\n    struct Author {\n        bytes32 name;\n        bytes32 mail;\n    }\n\n    struct Document {\n        bytes32 title;\n        bytes32 releaseDate;\n        Author author;\n        bool isEntity;\n    }\n\n    mapping(bytes32 => bytes32[]) private documentsOfAuthor; //documentsOfAuthor[authorName] = array of docHashes\n    mapping(bytes32 => Document) private documents; //documents[docHash] = Document\n\n    modifier onlyByDocumentManager() {\n        require(DOUG != 0x0);\n        address documentManager = ContractProvider(DOUG).contracts(\"documentmanager\");\n        require(msg.sender == documentManager);\n\n        _;\n    }\n\n    function isDocumentRegistered(bytes32 docHash) onlyByDocumentManager external constant returns (bool, bytes32, bytes32, bytes32, bytes32) {\n        if (documents[docHash].isEntity)\n            return (true, documents[docHash].title, documents[docHash].releaseDate, documents[docHash].author.name, documents[docHash].author.mail);\n        else\n            return (false, 0x0, 0x0, 0x0, 0x0);\n    }\n\n    //return if registration was succesful\n    function registerDocument(bytes32 docHash, bytes32 title, bytes32 releaseDate, bytes32 authorName, bytes32 authorMail) onlyByDocumentManager external returns (bool) {\n        bool succes = false;\n        if (!documents[docHash].isEntity) {\n            documents[docHash] = Document(title, releaseDate, Author(authorName, authorMail), true);\n            documentsOfAuthor[authorName].push(docHash);\n            succes = true;\n        }\n        DocumentRegistered(succes, docHash);\n        return succes;\n    }\n\n    //return if registration was succesful\n    function registerDocumentAsm(bytes32 docHash, bytes32 title, bytes32 releaseDate, bytes32 authorName, bytes32 authorMail) onlyByDocumentManager external returns (bool) {\n        bool succes = false;\n\n        assembly {\n            let mem := mload(0x40)\n            mstore(mem, authorName)\n            mstore(add(mem, 0x20), documentsOfAuthor_slot)    //documentsOfAuthor storage slot\n            let docauth := keccak256(mem, 0x40) \t  //documentsOfAuthor[authorName] => contains length of array\n            let nrOfDocuments := sload(docauth)\n\n            mstore(mem, docauth)\n            let docauth0 := keccak256(mem, 0x20)   //address of documentsOfAuthor[authorName][0]\n\n            mstore(mem, docHash)\n            mstore(add(mem, 0x20), documents_slot)                      //documents slot\n            let doc := keccak256(0x0, 0x40)        //address of documents[docHash]\n\n            if eq(sload(add(doc, 0x4)), 0) {                            //doesn't exists\n                sstore(docauth, add(nrOfDocuments, 1))                  //store amount of documents\n                sstore(add(docauth0, mul(nrOfDocuments, 0x1)), docHash) //store dochash\n                sstore(doc, title)                            //store document\n                sstore(add(doc, 0x1), releaseDate)\n                sstore(add(doc, 0x2), authorName)\n                sstore(add(doc, 0x3), authorMail)\n                sstore(add(doc, 0x4), 1)\n                succes := 1\n            }\n        }\n\n        DocumentRegistered(succes, docHash);\n        return (succes);\n    }\n\n    function getAmountOfDocumentsFromAuthor(bytes32 authorName) onlyByDocumentManager external constant returns(uint256 nrOfDocuments) {\n        assembly {\n            let mem := mload(0x40)\n            mstore(mem, authorName)\n            mstore(add(mem, 0x20), documentsOfAuthor_slot)                        //documentsOfAuthor storage slot\n            let docauth := keccak256(mem, 0x40) \t   //documentsOfAuthor[authorName] => contains length of array\n            nrOfDocuments := sload(docauth)\n        }\n        return nrOfDocuments;\n    }\n\n    //no check on correct indices => responsability of frontend\n    function getDocumentListFromAuthor(bytes32 authorName, uint256 startIndex, uint256 endIndex) onlyByDocumentManager external constant returns (bytes32 authorMail, bytes32[pageSize] memory titles, bytes32[pageSize] memory releaseDates) {\n        require(endIndex - startIndex < pageSize);\n\n        authorMail = documents[documentsOfAuthor[authorName][0]].author.mail;\n        for (uint256 i = startIndex; i <= endIndex; i++) {\n            titles[i-startIndex] = documents[documentsOfAuthor[authorName][i]].title;\n            releaseDates[i-startIndex] = documents[documentsOfAuthor[authorName][i]].releaseDate;\n        }\n\n        return (authorMail, titles, releaseDates);\n    }\n\n    //no check on correct indices => responsability of frontend\n    function getDocumentListFromAuthorAsm(bytes32 authorName, uint256 startIndex, uint256 endIndex) onlyByDocumentManager external constant returns (bytes32 authorMail, bytes32[pageSize] memory titles, bytes32[pageSize] memory releaseDates) {\n        require(endIndex - startIndex < pageSize);\n\n        assembly {\n            let mem := mload(0x40)\n            mstore(mem, authorName)\n            mstore(add(mem, 0x20), documentsOfAuthor_slot)                        //skip DOUG byte\n            let docauth := keccak256(mem, 0x40) \t   //documentsOfAuthor[authorName]\n            //nrOfDocuments := sload(docauth)        //length not needed\n\n            mstore(mem, docauth)\n            let docauth0 := keccak256(mem, 0x20)  //address of documentsOfAuthor[authorName][0]\n\n            for\n                { let i := startIndex }\n                lt(i, add(endIndex, 1))\n                { i := add(i, 1) }\n            {\n                let docHash := sload(add(docauth0, mul(i, 0x1)))\n\n                mstore(mem, docHash)                   //store docHash to memory\n                mstore(add(mem, 0x20), documents_slot)           //skip doug byte + first mapping\n                let doc := keccak256(mem, 0x40)        //address of documents[docHash]\n\n                if eq(i, 0) { authorMail := sload(add(doc, 0x3)) }  //+2 for Author Struct, +1 for second byte\n\n                mstore(add(titles, mul(sub(i, startIndex), 0x20)), sload(doc))\n                mstore(add(releaseDates, mul(sub(i, startIndex), 0x20)), sload(add(doc, 0x1)))\n            }\n        }\n\n        return (authorMail, titles, releaseDates);\n    }\n}\n",
  "sourcePath": "C:\\Users\\nick\\Documents\\Howest\\Nick\\BDA-SEM2\\Blockchain Development II\\Taken\\DocumentStore\\DocumentStore\\contracts\\DocumentStore.sol",
  "compiler": {
    "name": "solc",
    "version": "0.4.19+commit.c4cbbb05.Emscripten.clang"
  },
  "schemaVersion": "2.0.0",
  "updatedAt": "2018-04-13T19:02:22.525Z"
}