{
  "contractName": "DocumentStore",
  "abi": [
    {
      "constant": false,
      "inputs": [],
      "name": "kill",
      "outputs": [],
      "payable": false,
      "stateMutability": "nonpayable",
      "type": "function"
    },
    {
      "constant": true,
      "inputs": [
        {
          "name": "author",
          "type": "bytes32"
        }
      ],
      "name": "getByAuthor",
      "outputs": [
        {
          "name": "documentHashes",
          "type": "bytes32[25]"
        },
        {
          "name": "titles",
          "type": "bytes32[25]"
        },
        {
          "name": "authors",
          "type": "bytes32[25]"
        }
      ],
      "payable": false,
      "stateMutability": "view",
      "type": "function"
    },
    {
      "constant": false,
      "inputs": [
        {
          "name": "documentHash",
          "type": "bytes32"
        },
        {
          "name": "title",
          "type": "bytes32"
        },
        {
          "name": "author",
          "type": "bytes32"
        }
      ],
      "name": "register",
      "outputs": [
        {
          "name": "",
          "type": "bool"
        }
      ],
      "payable": false,
      "stateMutability": "nonpayable",
      "type": "function"
    },
    {
      "constant": true,
      "inputs": [],
      "name": "DBIdentifier",
      "outputs": [
        {
          "name": "",
          "type": "bytes32"
        }
      ],
      "payable": false,
      "stateMutability": "view",
      "type": "function"
    },
    {
      "constant": false,
      "inputs": [
        {
          "name": "cmc_",
          "type": "address"
        }
      ],
      "name": "setCMC",
      "outputs": [
        {
          "name": "",
          "type": "bool"
        }
      ],
      "payable": false,
      "stateMutability": "nonpayable",
      "type": "function"
    },
    {
      "constant": true,
      "inputs": [
        {
          "name": "requestedHash",
          "type": "bytes32"
        }
      ],
      "name": "getByHash",
      "outputs": [
        {
          "name": "documentHash",
          "type": "bytes32"
        },
        {
          "name": "title",
          "type": "bytes32"
        },
        {
          "name": "author",
          "type": "bytes32"
        }
      ],
      "payable": false,
      "stateMutability": "view",
      "type": "function"
    },
    {
      "payable": false,
      "stateMutability": "nonpayable",
      "type": "function",
      "constant": false,
      "inputs": [
        {
          "name": "identifier",
          "type": "bytes32"
        }
      ],
      "name": "setDBIdentifier",
      "outputs": []
    },
    {
      "payable": false,
      "stateMutability": "nonpayable",
      "type": "fallback"
    }
  ],
  "bytecode": "0x6060604052336000806101000a81548173ffffffffffffffffffffffffffffffffffffffff021916908373ffffffffffffffffffffffffffffffffffffffff160217905550610830806100536000396000f300606060405260043610610083576000357c0100000000000000000000000000000000000000000000000000000000900463ffffffff16806341c0e1b514610093578063459a3405146100a85780634da274fd146101695780637ffc72b7146101c25780639c740b0e146101f3578063a2dd3d4714610244578063bc37277d146102a5575b341561008e57600080fd5b600080fd5b341561009e57600080fd5b6100a66102cc565b005b34156100b357600080fd5b6100cd600480803560001916906020019091905050610361565b6040518084601960200280838360005b838110156100f85780820151818401526020810190506100dd565b5050505090500183601960200280838360005b8381101561012657808201518184015260208101905061010b565b5050505090500182601960200280838360005b83811015610154578082015181840152602081019050610139565b50505050905001935050505060405180910390f35b341561017457600080fd5b6101a86004808035600019169060200190919080356000191690602001909190803560001916906020019091905050610437565b604051808215151515815260200191505060405180910390f35b34156101cd57600080fd5b6101d5610503565b60405180826000191660001916815260200191505060405180910390f35b34156101fe57600080fd5b61022a600480803573ffffffffffffffffffffffffffffffffffffffff16906020019091905050610509565b604051808215151515815260200191505060405180910390f35b341561024f57600080fd5b610269600480803560001916906020019091905050610634565b60405180846000191660001916815260200183600019166000191681526020018260001916600019168152602001935050505060405180910390f35b34156102b057600080fd5b6102ca6004808035600019169060200190919050506106f3565b005b6000809054906101000a900473ffffffffffffffffffffffffffffffffffffffff1673ffffffffffffffffffffffffffffffffffffffff163373ffffffffffffffffffffffffffffffffffffffff1614151561032757600080fd5b6000809054906101000a900473ffffffffffffffffffffffffffffffffffffffff1673ffffffffffffffffffffffffffffffffffffffff16ff5b6103696107d8565b6103716107d8565b6103796107d8565b610381610701565b73ffffffffffffffffffffffffffffffffffffffff1663459a340585600060405161096001526040518263ffffffff167c010000000000000000000000000000000000000000000000000000000002815260040180826000191660001916815260200191505061096060405180830381600087803b151561040157600080fd5b6102c65a03f1151561041257600080fd5b5050506040518061032001806103200180610320016040529250925092509193909250565b6000610441610701565b73ffffffffffffffffffffffffffffffffffffffff16634da274fd8585856000604051602001526040518463ffffffff167c0100000000000000000000000000000000000000000000000000000000028152600401808460001916600019168152602001836000191660001916815260200182600019166000191681526020019350505050602060405180830381600087803b15156104df57600080fd5b6102c65a03f115156104f057600080fd5b5050506040518051905090509392505050565b60025481565b60008060009054906101000a900473ffffffffffffffffffffffffffffffffffffffff1673ffffffffffffffffffffffffffffffffffffffff163373ffffffffffffffffffffffffffffffffffffffff1614151561056657600080fd5b6000600160009054906101000a900473ffffffffffffffffffffffffffffffffffffffff1673ffffffffffffffffffffffffffffffffffffffff16141580156105db57508173ffffffffffffffffffffffffffffffffffffffff163373ffffffffffffffffffffffffffffffffffffffff1614155b156105e9576000905061062f565b81600160006101000a81548173ffffffffffffffffffffffffffffffffffffffff021916908373ffffffffffffffffffffffffffffffffffffffff160217905550600190505b919050565b6000806000610641610701565b73ffffffffffffffffffffffffffffffffffffffff1663a2dd3d47856000604051606001526040518263ffffffff167c0100000000000000000000000000000000000000000000000000000000028152600401808260001916600019168152602001915050606060405180830381600087803b15156106bf57600080fd5b6102c65a03f115156106d057600080fd5b505050604051805190602001805190602001805190509250925092509193909250565b806002816000191690555050565b600061070e600254610713565b905090565b6000600160009054906101000a900473ffffffffffffffffffffffffffffffffffffffff1673ffffffffffffffffffffffffffffffffffffffff1663e16c7d98836000604051602001526040518263ffffffff167c0100000000000000000000000000000000000000000000000000000000028152600401808260001916600019168152602001915050602060405180830381600087803b15156107b657600080fd5b6102c65a03f115156107c757600080fd5b505050604051805190509050919050565b610320604051908101604052806019905b60008019168152602001906001900390816107e957905050905600a165627a7a723058203db9d7330e113c5da4636e313c22da25d865f6dc496903b26b849cb13868c2fa0029",
  "source": "pragma solidity ^0.4.17;\r\n\r\ncontract Restricted {\r\n    address owner;\r\n    \r\n    function Restricted() public {\r\n        owner = msg.sender;\r\n    }\r\n    \r\n    modifier onlyOwner() {\r\n        require(msg.sender == owner);\r\n        _;\r\n    }\r\n    \r\n    modifier onlyBy(address account) {\r\n        require(msg.sender == account);\r\n        _;\r\n    }\r\n}\r\n\r\ncontract Mortal is Restricted {\r\n    function kill() onlyOwner public {\r\n        selfdestruct(owner);\r\n    }\r\n}\r\n\r\ncontract Rejector {\r\n    function () public {\r\n        revert();\r\n    }\r\n}\r\n\r\ncontract CMC is Mortal, Rejector {\r\n    mapping (bytes32 => address) _contracts;\r\n    \r\n    function addContract(bytes32 identifier, address contractAddress) public onlyOwner {\r\n        _contracts[identifier] = contractAddress;\r\n    }\r\n    \r\n    function removeContract(bytes32 identifier) public onlyOwner returns (bool) {\r\n        if (_contracts[identifier] == 0x0) return false;\r\n        \r\n        _contracts[identifier] = 0x0;\r\n        return true;\r\n    }\r\n    \r\n    function getContract(bytes32 name) public view returns (address) {\r\n        return _contracts[name];\r\n    }\r\n}\r\n\r\ncontract CMCEnabled is Mortal, Rejector {    \r\n    address cmc;\r\n    \r\n    function setCMC(address cmc_) public onlyOwner returns (bool) {\r\n        if (cmc != 0x0 && msg.sender != cmc_) return false;\r\n        \r\n        cmc = cmc_;\r\n        return true;\r\n    }\r\n    \r\n    function getContract(bytes32 identifier) internal view returns (address) {\r\n        return CMC(cmc).getContract(identifier);\r\n    }\r\n}\r\n\r\ncontract DocumentStore is CMCEnabled {\r\n    bytes32 public DBIdentifier;\r\n\r\n    function setDBIdentifier(bytes32 identifier) public {\r\n        DBIdentifier = identifier;\r\n    }\r\n\r\n    function getDB() internal view returns (DocumentStoreDB) {\r\n        return DocumentStoreDB(getContract(DBIdentifier));\r\n    }\r\n\r\n    function register(bytes32 documentHash, bytes32 title, bytes32 author) public returns (bool) {\r\n        return getDB().register(documentHash, title, author);\r\n    }\r\n\r\n    function getByHash(bytes32 requestedHash) public view returns (bytes32 documentHash, bytes32 title, bytes32 author) {\r\n        return getDB().getByHash(requestedHash);\r\n    }\r\n\r\n    function getByAuthor(bytes32 author) public view returns (bytes32[25] documentHashes, bytes32[25] titles, bytes32[25] authors) {\r\n        return getDB().getByAuthor(author);\r\n    }\r\n}\r\n\r\ncontract DocumentStoreDB is CMCEnabled {\r\n\r\n    struct Document {\r\n        bytes32 documentHash;\r\n        bytes32 title;\r\n        bytes32 author;\r\n    }\r\n\r\n    mapping (bytes32 => Document) _documentsByHash;\r\n    mapping (bytes32 => Document[]) _documentsByAuthor;\r\n    Document[] _documents;\r\n    \r\n    function register(bytes32 documentHash, bytes32 title, bytes32 author) public returns (bool) {\r\n        if (_documentsByHash[documentHash].documentHash != 0x0) return false; // Already registered, we can abort early.\r\n\r\n        // Not registered yet, compose a document and store it in the lookups.\r\n        Document memory document = Document({ documentHash: documentHash, title: title, author: author });\r\n        _documentsByHash[documentHash] = document;\r\n        _documentsByAuthor[author].push(document);\r\n        _documents.push(document);\r\n        return true;\r\n    }\r\n\r\n    function getByHash(bytes32 requestedHash) public view returns (bytes32 documentHash, bytes32 title, bytes32 author) {\r\n        Document memory document = _documentsByHash[requestedHash];\r\n\r\n        documentHash = document.documentHash;\r\n        title = document.title;\r\n        author = document.author;\r\n    }\r\n\r\n    function getByAuthor(bytes32 requestedAuthor) public view returns (bytes32[25] documentHashes, bytes32[25] titles, bytes32[25] authors) {\r\n        Document[] memory documents = _documentsByAuthor[requestedAuthor];\r\n\r\n        for(uint i = 0; i < documents.length; i++) {\r\n            documentHashes[i] = documents[i].documentHash;\r\n            titles[i] = documents[i].title;\r\n            authors[i] = documents[i].author;\r\n        }\r\n    }\r\n}",
  "sourcePath": "C:\\Users\\nick\\Documents\\Howest\\Nick\\BDA-SEM2\\Blockchain Development II\\Taken\\DocumentStore\\contracts\\DocumentStore.sol",
  "compiler": {
    "name": "solc",
    "version": "0.4.18+commit.9cf6e910.Emscripten.clang"
  },
  "schemaVersion": "1.0.1",
  "updatedAt": "2018-04-06T20:39:31.716Z"
}