{
  "contractName": "DocumentStoreDB",
  "abi": [
    {
      "constant": false,
      "inputs": [],
      "name": "kill",
      "outputs": [],
      "payable": false,
      "stateMutability": "nonpayable",
      "type": "function"
    },
    {
      "constant": true,
      "inputs": [
        {
          "name": "requestedAuthor",
          "type": "bytes32"
        }
      ],
      "name": "getByAuthor",
      "outputs": [
        {
          "name": "documentHashes",
          "type": "bytes32[25]"
        },
        {
          "name": "titles",
          "type": "bytes32[25]"
        },
        {
          "name": "authors",
          "type": "bytes32[25]"
        }
      ],
      "payable": false,
      "stateMutability": "view",
      "type": "function"
    },
    {
      "constant": false,
      "inputs": [
        {
          "name": "documentHash",
          "type": "bytes32"
        },
        {
          "name": "title",
          "type": "bytes32"
        },
        {
          "name": "author",
          "type": "bytes32"
        }
      ],
      "name": "register",
      "outputs": [
        {
          "name": "",
          "type": "bool"
        }
      ],
      "payable": false,
      "stateMutability": "nonpayable",
      "type": "function"
    },
    {
      "constant": false,
      "inputs": [
        {
          "name": "cmc_",
          "type": "address"
        }
      ],
      "name": "setCMC",
      "outputs": [
        {
          "name": "",
          "type": "bool"
        }
      ],
      "payable": false,
      "stateMutability": "nonpayable",
      "type": "function"
    },
    {
      "constant": true,
      "inputs": [
        {
          "name": "requestedHash",
          "type": "bytes32"
        }
      ],
      "name": "getByHash",
      "outputs": [
        {
          "name": "documentHash",
          "type": "bytes32"
        },
        {
          "name": "title",
          "type": "bytes32"
        },
        {
          "name": "author",
          "type": "bytes32"
        }
      ],
      "payable": false,
      "stateMutability": "view",
      "type": "function"
    },
    {
      "payable": false,
      "stateMutability": "nonpayable",
      "type": "fallback"
    }
  ],
  "bytecode": "0x6060604052336000806101000a81548173ffffffffffffffffffffffffffffffffffffffff021916908373ffffffffffffffffffffffffffffffffffffffff1602179055506108e9806100536000396000f30060606040526004361061006d576000357c0100000000000000000000000000000000000000000000000000000000900463ffffffff16806341c0e1b51461007d578063459a3405146100925780634da274fd146101535780639c740b0e146101ac578063a2dd3d47146101fd575b341561007857600080fd5b600080fd5b341561008857600080fd5b61009061025e565b005b341561009d57600080fd5b6100b76004808035600019169060200190919050506102f3565b6040518084601960200280838360005b838110156100e25780820151818401526020810190506100c7565b5050505090500183601960200280838360005b838110156101105780820151818401526020810190506100f5565b5050505090500182601960200280838360005b8381101561013e578082015181840152602081019050610123565b50505050905001935050505060405180910390f35b341561015e57600080fd5b610192600480803560001916906020019091908035600019169060200190919080356000191690602001909190505061049a565b604051808215151515815260200191505060405180910390f35b34156101b757600080fd5b6101e3600480803573ffffffffffffffffffffffffffffffffffffffff16906020019091905050610635565b604051808215151515815260200191505060405180910390f35b341561020857600080fd5b610222600480803560001916906020019091905050610760565b60405180846000191660001916815260200183600019166000191681526020018260001916600019168152602001935050505060405180910390f35b6000809054906101000a900473ffffffffffffffffffffffffffffffffffffffff1673ffffffffffffffffffffffffffffffffffffffff163373ffffffffffffffffffffffffffffffffffffffff161415156102b957600080fd5b6000809054906101000a900473ffffffffffffffffffffffffffffffffffffffff1673ffffffffffffffffffffffffffffffffffffffff16ff5b6102fb6107e9565b6103036107e9565b61030b6107e9565b610313610815565b6000600360008760001916600019168152602001908152602001600020805480602002602001604051908101604052809291908181526020016000905b828210156103b9578382906000526020600020906003020160606040519081016040529081600082015460001916600019168152602001600182015460001916600019168152602001600282015460001916600019168152505081526020019060010190610350565b505050509150600090505b81518110156104915781818151811015156103db57fe5b906020019060200201516000015185826019811015156103f757fe5b60200201906000191690816000191681525050818181518110151561041857fe5b9060200190602002015160200151848260198110151561043457fe5b60200201906000191690816000191681525050818181518110151561045557fe5b9060200190602002015160400151838260198110151561047157fe5b6020020190600019169081600019168152505080806001019150506103c4565b50509193909250565b60006104a4610829565b600060010260026000876000191660001916815260200190815260200160002060000154600019161415156104dc576000915061062d565b6060604051908101604052808660001916815260200185600019168152602001846000191681525090508060026000876000191660001916815260200190815260200160002060008201518160000190600019169055602082015181600101906000191690556040820151816002019060001916905590505060036000846000191660001916815260200190815260200160002080548060010182816105829190610854565b91600052602060002090600302016000839091909150600082015181600001906000191690556020820151816001019060001916905560408201518160020190600019169055505050600480548060010182816105df9190610854565b91600052602060002090600302016000839091909150600082015181600001906000191690556020820151816001019060001916905560408201518160020190600019169055505050600191505b509392505050565b60008060009054906101000a900473ffffffffffffffffffffffffffffffffffffffff1673ffffffffffffffffffffffffffffffffffffffff163373ffffffffffffffffffffffffffffffffffffffff1614151561069257600080fd5b6000600160009054906101000a900473ffffffffffffffffffffffffffffffffffffffff1673ffffffffffffffffffffffffffffffffffffffff161415801561070757508173ffffffffffffffffffffffffffffffffffffffff163373ffffffffffffffffffffffffffffffffffffffff1614155b15610715576000905061075b565b81600160006101000a81548173ffffffffffffffffffffffffffffffffffffffff021916908373ffffffffffffffffffffffffffffffffffffffff160217905550600190505b919050565b600080600061076d610829565b6002600086600019166000191681526020019081526020016000206060604051908101604052908160008201546000191660001916815260200160018201546000191660001916815260200160028201546000191660001916815250509050806000015193508060200151925080604001519150509193909250565b610320604051908101604052806019905b60008019168152602001906001900390816107fa5790505090565b602060405190810160405280600081525090565b6060604051908101604052806000801916815260200160008019168152602001600080191681525090565b815481835581811511610881576003028160030283600052602060002091820191016108809190610886565b5b505050565b6108ba91905b808211156108b657600080820160009055600182016000905560028201600090555060030161088c565b5090565b905600a165627a7a7230582046317822a8c1cc41183a305a569a173304b163e597276c159379fffea1d6c7df0029",
  "source": "pragma solidity ^0.4.0;\r\n\r\nimport \"./Utility.sol\";\r\nimport \"./CMC.sol\";\r\n\r\ncontract DocumentStore is CMCEnabled {\r\n    bytes32 public DBIdentifier;\r\n\r\n    function getDB() internal view returns (DocumentStoreDB) {\r\n        return DocumentStoreDB(getContract(DBIdentifier));\r\n    }\r\n\r\n    function register(bytes32 documentHash, bytes32 title, bytes32 author) public returns (bool) {\r\n        return getDB().register(documentHash, title, author);\r\n    }\r\n\r\n    function getByHash(bytes32 requestedHash) public view returns (bytes32 documentHash, bytes32 title, bytes32 author) {\r\n        return getDB().getByHash(requestedHash);\r\n    }\r\n\r\n    function getByAuthor(bytes32 author) public view returns (bytes32[25] documentHashes, bytes32[25] titles, bytes32[25] authors) {\r\n        return getDB().getByAuthor(author);\r\n    }\r\n}\r\n\r\ncontract DocumentStoreDB is CMCEnabled {\r\n\r\n    struct Document {\r\n        bytes32 documentHash;\r\n        bytes32 title;\r\n        bytes32 author;\r\n    }\r\n\r\n    mapping (bytes32 => Document) _documentsByHash;\r\n    mapping (bytes32 => Document[]) _documentsByAuthor;\r\n    Document[] _documents;\r\n    \r\n    function register(bytes32 documentHash, bytes32 title, bytes32 author) public returns (bool) {\r\n        if (_documentsByHash[documentHash].documentHash != 0x0) return false; // Already registered, we can abort early.\r\n\r\n        // Not registered yet, compose a document and store it in the lookups.\r\n        Document memory document = Document({ documentHash: documentHash, title: title, author: author });\r\n        _documentsByHash[documentHash] = document;\r\n        _documentsByAuthor[author].push(document);\r\n        _documents.push(document);\r\n        return true;\r\n    }\r\n\r\n    function getByHash(bytes32 requestedHash) public view returns (bytes32 documentHash, bytes32 title, bytes32 author) {\r\n        Document memory document = _documentsByHash[requestedHash];\r\n\r\n        documentHash = document.documentHash;\r\n        title = document.title;\r\n        author = document.author;\r\n    }\r\n\r\n    function getByAuthor(bytes32 requestedAuthor) public view returns (bytes32[25] documentHashes, bytes32[25] titles, bytes32[25] authors) {\r\n        Document[] memory documents = _documentsByAuthor[requestedAuthor];\r\n\r\n        for(uint i = 0; i < documents.length; i++) {\r\n            documentHashes[i] = documents[i].documentHash;\r\n            titles[i] = documents[i].title;\r\n            authors[i] = documents[i].author;\r\n        }\r\n    }\r\n}",
  "sourcePath": "C:\\Users\\nick\\Documents\\Howest\\Nick\\BDA-SEM2\\Blockchain Development II\\Taken\\DocumentStore\\contracts\\DocumentStore.sol",
  "compiler": {
    "name": "solc",
    "version": "0.4.18+commit.9cf6e910.Emscripten.clang"
  },
  "schemaVersion": "1.0.1",
  "updatedAt": "2018-04-05T21:51:42.708Z"
}