{
  "contractName": "DocumentStore",
  "abi": [
    {
      "constant": false,
      "inputs": [],
      "name": "kill",
      "outputs": [],
      "payable": false,
      "stateMutability": "nonpayable",
      "type": "function"
    },
    {
      "constant": true,
      "inputs": [
        {
          "name": "author",
          "type": "bytes32"
        }
      ],
      "name": "getByAuthor",
      "outputs": [
        {
          "name": "documentHashes",
          "type": "bytes32[25]"
        },
        {
          "name": "titles",
          "type": "bytes32[25]"
        },
        {
          "name": "authors",
          "type": "bytes32[25]"
        }
      ],
      "payable": false,
      "stateMutability": "view",
      "type": "function"
    },
    {
      "constant": false,
      "inputs": [
        {
          "name": "documentHash",
          "type": "bytes32"
        },
        {
          "name": "title",
          "type": "bytes32"
        },
        {
          "name": "author",
          "type": "bytes32"
        }
      ],
      "name": "register",
      "outputs": [
        {
          "name": "",
          "type": "bool"
        }
      ],
      "payable": false,
      "stateMutability": "nonpayable",
      "type": "function"
    },
    {
      "constant": true,
      "inputs": [],
      "name": "DBIdentifier",
      "outputs": [
        {
          "name": "",
          "type": "bytes32"
        }
      ],
      "payable": false,
      "stateMutability": "view",
      "type": "function"
    },
    {
      "constant": false,
      "inputs": [
        {
          "name": "cmc_",
          "type": "address"
        }
      ],
      "name": "setCMC",
      "outputs": [
        {
          "name": "",
          "type": "bool"
        }
      ],
      "payable": false,
      "stateMutability": "nonpayable",
      "type": "function"
    },
    {
      "constant": true,
      "inputs": [
        {
          "name": "requestedHash",
          "type": "bytes32"
        }
      ],
      "name": "getByHash",
      "outputs": [
        {
          "name": "documentHash",
          "type": "bytes32"
        },
        {
          "name": "title",
          "type": "bytes32"
        },
        {
          "name": "author",
          "type": "bytes32"
        }
      ],
      "payable": false,
      "stateMutability": "view",
      "type": "function"
    },
    {
      "payable": false,
      "stateMutability": "nonpayable",
      "type": "fallback"
    }
  ],
  "bytecode": "0x6060604052336000806101000a81548173ffffffffffffffffffffffffffffffffffffffff021916908373ffffffffffffffffffffffffffffffffffffffff1602179055506107f0806100536000396000f300606060405260043610610078576000357c0100000000000000000000000000000000000000000000000000000000900463ffffffff16806341c0e1b514610088578063459a34051461009d5780634da274fd1461015e5780637ffc72b7146101b75780639c740b0e146101e8578063a2dd3d4714610239575b341561008357600080fd5b600080fd5b341561009357600080fd5b61009b61029a565b005b34156100a857600080fd5b6100c260048080356000191690602001909190505061032f565b6040518084601960200280838360005b838110156100ed5780820151818401526020810190506100d2565b5050505090500183601960200280838360005b8381101561011b578082015181840152602081019050610100565b5050505090500182601960200280838360005b8381101561014957808201518184015260208101905061012e565b50505050905001935050505060405180910390f35b341561016957600080fd5b61019d6004808035600019169060200190919080356000191690602001909190803560001916906020019091905050610405565b604051808215151515815260200191505060405180910390f35b34156101c257600080fd5b6101ca6104d1565b60405180826000191660001916815260200191505060405180910390f35b34156101f357600080fd5b61021f600480803573ffffffffffffffffffffffffffffffffffffffff169060200190919050506104d7565b604051808215151515815260200191505060405180910390f35b341561024457600080fd5b61025e600480803560001916906020019091905050610602565b60405180846000191660001916815260200183600019166000191681526020018260001916600019168152602001935050505060405180910390f35b6000809054906101000a900473ffffffffffffffffffffffffffffffffffffffff1673ffffffffffffffffffffffffffffffffffffffff163373ffffffffffffffffffffffffffffffffffffffff161415156102f557600080fd5b6000809054906101000a900473ffffffffffffffffffffffffffffffffffffffff1673ffffffffffffffffffffffffffffffffffffffff16ff5b610337610798565b61033f610798565b610347610798565b61034f6106c1565b73ffffffffffffffffffffffffffffffffffffffff1663459a340585600060405161096001526040518263ffffffff167c010000000000000000000000000000000000000000000000000000000002815260040180826000191660001916815260200191505061096060405180830381600087803b15156103cf57600080fd5b6102c65a03f115156103e057600080fd5b5050506040518061032001806103200180610320016040529250925092509193909250565b600061040f6106c1565b73ffffffffffffffffffffffffffffffffffffffff16634da274fd8585856000604051602001526040518463ffffffff167c0100000000000000000000000000000000000000000000000000000000028152600401808460001916600019168152602001836000191660001916815260200182600019166000191681526020019350505050602060405180830381600087803b15156104ad57600080fd5b6102c65a03f115156104be57600080fd5b5050506040518051905090509392505050565b60025481565b60008060009054906101000a900473ffffffffffffffffffffffffffffffffffffffff1673ffffffffffffffffffffffffffffffffffffffff163373ffffffffffffffffffffffffffffffffffffffff1614151561053457600080fd5b6000600160009054906101000a900473ffffffffffffffffffffffffffffffffffffffff1673ffffffffffffffffffffffffffffffffffffffff16141580156105a957508173ffffffffffffffffffffffffffffffffffffffff163373ffffffffffffffffffffffffffffffffffffffff1614155b156105b757600090506105fd565b81600160006101000a81548173ffffffffffffffffffffffffffffffffffffffff021916908373ffffffffffffffffffffffffffffffffffffffff160217905550600190505b919050565b600080600061060f6106c1565b73ffffffffffffffffffffffffffffffffffffffff1663a2dd3d47856000604051606001526040518263ffffffff167c0100000000000000000000000000000000000000000000000000000000028152600401808260001916600019168152602001915050606060405180830381600087803b151561068d57600080fd5b6102c65a03f1151561069e57600080fd5b505050604051805190602001805190602001805190509250925092509193909250565b60006106ce6002546106d3565b905090565b6000600160009054906101000a900473ffffffffffffffffffffffffffffffffffffffff1673ffffffffffffffffffffffffffffffffffffffff1663e16c7d98836000604051602001526040518263ffffffff167c0100000000000000000000000000000000000000000000000000000000028152600401808260001916600019168152602001915050602060405180830381600087803b151561077657600080fd5b6102c65a03f1151561078757600080fd5b505050604051805190509050919050565b610320604051908101604052806019905b60008019168152602001906001900390816107a957905050905600a165627a7a7230582019ceaa68492282b8f6a2a42558a68b72b4c9c3a25a86dbb614f8a9a61327bfc30029",
  "source": "pragma solidity ^0.4.0;\r\n\r\nimport \"./Utility.sol\";\r\nimport \"./CMC.sol\";\r\n\r\ncontract DocumentStore is CMCEnabled {\r\n    bytes32 public DBIdentifier;\r\n\r\n    function getDB() internal view returns (DocumentStoreDB) {\r\n        return DocumentStoreDB(getContract(DBIdentifier));\r\n    }\r\n\r\n    function register(bytes32 documentHash, bytes32 title, bytes32 author) public returns (bool) {\r\n        return getDB().register(documentHash, title, author);\r\n    }\r\n\r\n    function getByHash(bytes32 requestedHash) public view returns (bytes32 documentHash, bytes32 title, bytes32 author) {\r\n        return getDB().getByHash(requestedHash);\r\n    }\r\n\r\n    function getByAuthor(bytes32 author) public view returns (bytes32[25] documentHashes, bytes32[25] titles, bytes32[25] authors) {\r\n        return getDB().getByAuthor(author);\r\n    }\r\n}\r\n\r\ncontract DocumentStoreDB is CMCEnabled {\r\n\r\n    struct Document {\r\n        bytes32 documentHash;\r\n        bytes32 title;\r\n        bytes32 author;\r\n    }\r\n\r\n    mapping (bytes32 => Document) _documentsByHash;\r\n    mapping (bytes32 => Document[]) _documentsByAuthor;\r\n    Document[] _documents;\r\n    \r\n    function register(bytes32 documentHash, bytes32 title, bytes32 author) public returns (bool) {\r\n        if (_documentsByHash[documentHash].documentHash != 0x0) return false; // Already registered, we can abort early.\r\n\r\n        // Not registered yet, compose a document and store it in the lookups.\r\n        Document memory document = Document({ documentHash: documentHash, title: title, author: author });\r\n        _documentsByHash[documentHash] = document;\r\n        _documentsByAuthor[author].push(document);\r\n        _documents.push(document);\r\n        return true;\r\n    }\r\n\r\n    function getByHash(bytes32 requestedHash) public view returns (bytes32 documentHash, bytes32 title, bytes32 author) {\r\n        Document memory document = _documentsByHash[requestedHash];\r\n\r\n        documentHash = document.documentHash;\r\n        title = document.title;\r\n        author = document.author;\r\n    }\r\n\r\n    function getByAuthor(bytes32 requestedAuthor) public view returns (bytes32[25] documentHashes, bytes32[25] titles, bytes32[25] authors) {\r\n        Document[] memory documents = _documentsByAuthor[requestedAuthor];\r\n\r\n        for(uint i = 0; i < documents.length; i++) {\r\n            documentHashes[i] = documents[i].documentHash;\r\n            titles[i] = documents[i].title;\r\n            authors[i] = documents[i].author;\r\n        }\r\n    }\r\n}",
  "sourcePath": "C:\\Users\\nick\\Documents\\Howest\\Nick\\BDA-SEM2\\Blockchain Development II\\Taken\\DocumentStore\\contracts\\DocumentStore.sol",
  "compiler": {
    "name": "solc",
    "version": "0.4.18+commit.9cf6e910.Emscripten.clang"
  },
  "schemaVersion": "1.0.1",
  "updatedAt": "2018-04-05T21:51:42.692Z"
}