{
  "contractName": "DocumentManager",
  "abi": [
    {
      "constant": false,
      "inputs": [
        {
          "name": "dougAddr",
          "type": "address"
        }
      ],
      "name": "setDougAddress",
      "outputs": [
        {
          "name": "result",
          "type": "bool"
        }
      ],
      "payable": false,
      "stateMutability": "nonpayable",
      "type": "function"
    },
    {
      "constant": true,
      "inputs": [],
      "name": "pageSize",
      "outputs": [
        {
          "name": "",
          "type": "uint256"
        }
      ],
      "payable": false,
      "stateMutability": "view",
      "type": "function"
    },
    {
      "constant": false,
      "inputs": [],
      "name": "remove",
      "outputs": [],
      "payable": false,
      "stateMutability": "nonpayable",
      "type": "function"
    },
    {
      "constant": true,
      "inputs": [],
      "name": "getPageSize",
      "outputs": [
        {
          "name": "",
          "type": "uint256"
        }
      ],
      "payable": false,
      "stateMutability": "pure",
      "type": "function"
    },
    {
      "constant": true,
      "inputs": [
        {
          "name": "sdocHash",
          "type": "bytes32"
        }
      ],
      "name": "isDocumentRegistered",
      "outputs": [
        {
          "name": "",
          "type": "bool"
        },
        {
          "name": "",
          "type": "bytes32"
        },
        {
          "name": "",
          "type": "bytes32"
        },
        {
          "name": "",
          "type": "bytes32"
        },
        {
          "name": "",
          "type": "bytes32"
        }
      ],
      "payable": false,
      "stateMutability": "view",
      "type": "function"
    },
    {
      "constant": false,
      "inputs": [
        {
          "name": "sdocHash",
          "type": "bytes32"
        },
        {
          "name": "title",
          "type": "bytes32"
        },
        {
          "name": "releaseDate",
          "type": "bytes32"
        },
        {
          "name": "authorName",
          "type": "bytes32"
        },
        {
          "name": "authorMail",
          "type": "bytes32"
        }
      ],
      "name": "registerDocument",
      "outputs": [
        {
          "name": "",
          "type": "bool"
        }
      ],
      "payable": false,
      "stateMutability": "nonpayable",
      "type": "function"
    },
    {
      "constant": false,
      "inputs": [
        {
          "name": "sdocHash",
          "type": "bytes32"
        },
        {
          "name": "title",
          "type": "bytes32"
        },
        {
          "name": "releaseDate",
          "type": "bytes32"
        },
        {
          "name": "authorName",
          "type": "bytes32"
        },
        {
          "name": "authorMail",
          "type": "bytes32"
        }
      ],
      "name": "registerDocumentAsm",
      "outputs": [
        {
          "name": "",
          "type": "bool"
        }
      ],
      "payable": false,
      "stateMutability": "nonpayable",
      "type": "function"
    },
    {
      "constant": true,
      "inputs": [
        {
          "name": "authorName",
          "type": "bytes32"
        }
      ],
      "name": "getAmountOfDocumentsFromAuthor",
      "outputs": [
        {
          "name": "nrOfDocuments",
          "type": "uint256"
        }
      ],
      "payable": false,
      "stateMutability": "view",
      "type": "function"
    },
    {
      "constant": true,
      "inputs": [
        {
          "name": "authorName",
          "type": "bytes32"
        },
        {
          "name": "startIndex",
          "type": "uint256"
        },
        {
          "name": "endIndex",
          "type": "uint256"
        }
      ],
      "name": "getDocumentListFromAuthor",
      "outputs": [
        {
          "name": "authorMail",
          "type": "bytes32"
        },
        {
          "name": "titles",
          "type": "bytes32[10]"
        },
        {
          "name": "releaseDates",
          "type": "bytes32[10]"
        }
      ],
      "payable": false,
      "stateMutability": "view",
      "type": "function"
    },
    {
      "constant": true,
      "inputs": [
        {
          "name": "authorName",
          "type": "bytes32"
        },
        {
          "name": "startIndex",
          "type": "uint256"
        },
        {
          "name": "endIndex",
          "type": "uint256"
        }
      ],
      "name": "getDocumentListFromAuthorAsm",
      "outputs": [
        {
          "name": "authorMail",
          "type": "bytes32"
        },
        {
          "name": "titles",
          "type": "bytes32[10]"
        },
        {
          "name": "releaseDates",
          "type": "bytes32[10]"
        }
      ],
      "payable": false,
      "stateMutability": "view",
      "type": "function"
    }
  ],
  "bytecode": "0x6060604052341561000f57600080fd5b610c478061001e6000396000f3006060604052600436106100a4576000357c0100000000000000000000000000000000000000000000000000000000900463ffffffff1680630a473266146100a95780633b55ef341461015c578063618e6ce61461020f57806380e2653e1461028a578063818adeef146102db57806394490e9a146103165780639c4a27d71461033f578063a7f43779146103b2578063b67530a4146103c7578063d7662d5d1461043a575b600080fd5b34156100b457600080fd5b6100e0600480803560001916906020019091908035906020019091908035906020019091905050610463565b60405180846000191660001916815260200183600a60200280838360005b838110156101195780820151818401526020810190506100fe565b5050505090500182600a60200280838360005b8381101561014757808201518184015260208101905061012c565b50505050905001935050505060405180910390f35b341561016757600080fd5b610193600480803560001916906020019091908035906020019091908035906020019091905050610546565b60405180846000191660001916815260200183600a60200280838360005b838110156101cc5780820151818401526020810190506101b1565b5050505090500182600a60200280838360005b838110156101fa5780820151818401526020810190506101df565b50505050905001935050505060405180910390f35b341561021a57600080fd5b610234600480803560001916906020019091905050610629565b604051808615151515815260200185600019166000191681526020018460001916600019168152602001836000191660001916815260200182600019166000191681526020019550505050505060405180910390f35b341561029557600080fd5b6102c1600480803573ffffffffffffffffffffffffffffffffffffffff169060200190919050506106fd565b604051808215151515815260200191505060405180910390f35b34156102e657600080fd5b6103006004808035600019169060200190919050506107eb565b6040518082815260200191505060405180910390f35b341561032157600080fd5b610329610895565b6040518082815260200191505060405180910390f35b341561034a57600080fd5b6103986004808035600019169060200190919080356000191690602001909190803560001916906020019091908035600019169060200190919080356000191690602001909190505061089a565b604051808215151515815260200191505060405180910390f35b34156103bd57600080fd5b6103c5610988565b005b34156103d257600080fd5b61042060048080356000191690602001909190803560001916906020019091908035600019169060200190919080356000191690602001909190803560001916906020019091905050610a19565b604051808215151515815260200191505060405180910390f35b341561044557600080fd5b61044d610b07565b6040518082815260200191505060405180910390f35b600061046d610bef565b610475610bef565b61047d610b10565b73ffffffffffffffffffffffffffffffffffffffff16630a47326687878760006040516102a001526040518463ffffffff167c010000000000000000000000000000000000000000000000000000000002815260040180846000191660001916815260200183815260200182815260200193505050506102a060405180830381600087803b151561050d57600080fd5b6102c65a03f1151561051e57600080fd5b5050506040518051906020018061014001806101400160405292509250925093509350939050565b6000610550610bef565b610558610bef565b610560610b10565b73ffffffffffffffffffffffffffffffffffffffff16633b55ef3487878760006040516102a001526040518463ffffffff167c010000000000000000000000000000000000000000000000000000000002815260040180846000191660001916815260200183815260200182815260200193505050506102a060405180830381600087803b15156105f057600080fd5b6102c65a03f1151561060157600080fd5b5050506040518051906020018061014001806101400160405292509250925093509350939050565b6000806000806000610639610b10565b73ffffffffffffffffffffffffffffffffffffffff1663618e6ce687600060405160a001526040518263ffffffff167c010000000000000000000000000000000000000000000000000000000002815260040180826000191660001916815260200191505060a060405180830381600087803b15156106b757600080fd5b6102c65a03f115156106c857600080fd5b505050604051805190602001805190602001805190602001805190602001805190509450945094509450945091939590929450565b6000806000809054906101000a900473ffffffffffffffffffffffffffffffffffffffff1673ffffffffffffffffffffffffffffffffffffffff161415801561079357506000809054906101000a900473ffffffffffffffffffffffffffffffffffffffff1673ffffffffffffffffffffffffffffffffffffffff163373ffffffffffffffffffffffffffffffffffffffff1614155b156107a157600090506107e6565b816000806101000a81548173ffffffffffffffffffffffffffffffffffffffff021916908373ffffffffffffffffffffffffffffffffffffffff160217905550600190505b919050565b60006107f5610b10565b73ffffffffffffffffffffffffffffffffffffffff1663818adeef836000604051602001526040518263ffffffff167c0100000000000000000000000000000000000000000000000000000000028152600401808260001916600019168152602001915050602060405180830381600087803b151561087357600080fd5b6102c65a03f1151561088457600080fd5b505050604051805190509050919050565b600a81565b60006108a4610b10565b73ffffffffffffffffffffffffffffffffffffffff1663b67530a487878787876000604051602001526040518663ffffffff167c0100000000000000000000000000000000000000000000000000000000028152600401808660001916600019168152602001856000191660001916815260200184600019166000191681526020018360001916600019168152602001826000191660001916815260200195505050505050602060405180830381600087803b151561096257600080fd5b6102c65a03f1151561097357600080fd5b50505060405180519050905095945050505050565b6000809054906101000a900473ffffffffffffffffffffffffffffffffffffffff1673ffffffffffffffffffffffffffffffffffffffff163373ffffffffffffffffffffffffffffffffffffffff161415610a17576000809054906101000a900473ffffffffffffffffffffffffffffffffffffffff1673ffffffffffffffffffffffffffffffffffffffff16ff5b565b6000610a23610b10565b73ffffffffffffffffffffffffffffffffffffffff1663b67530a487878787876000604051602001526040518663ffffffff167c0100000000000000000000000000000000000000000000000000000000028152600401808660001916600019168152602001856000191660001916815260200184600019166000191681526020018360001916600019168152602001826000191660001916815260200195505050505050602060405180830381600087803b1515610ae157600080fd5b6102c65a03f11515610af257600080fd5b50505060405180519050905095945050505050565b6000600a905090565b6000806000809054906101000a900473ffffffffffffffffffffffffffffffffffffffff1673ffffffffffffffffffffffffffffffffffffffff1663ec56a3736000604051602001526040518163ffffffff167c010000000000000000000000000000000000000000000000000000000002815260040180807f646f63756d656e7473746f7265000000000000000000000000000000000000008152506020019050602060405180830381600087803b1515610bcb57600080fd5b6102c65a03f11515610bdc57600080fd5b5050506040518051905090508091505090565b61014060405190810160405280600a905b6000801916815260200190600190039081610c0057905050905600a165627a7a7230582089e0348b1ea61535278db4fbd968841c7b36000db8b4ba2a984b8c7a2b06924a0029",
  "source": "pragma solidity ^0.4.17;\n\nimport './ContractProvider.sol';\nimport './DocumentStore.sol';\n\ncontract DocumentManager is DocumentBase {\n\n  function getPageSize() public pure returns (uint) {\n    return pageSize;\n  }\n\n  function getDocumentStore() private view returns (DocumentStore) {\n    address documentStoreAddress = ContractProvider(DOUG).contracts(\"documentstore\");\n    return DocumentStore(documentStoreAddress);\n  }\n\n  function isDocumentRegistered(bytes32 sdocHash) public constant returns (bool, bytes32, bytes32, bytes32, bytes32) {\n    return getDocumentStore().isDocumentRegistered(sdocHash);\n  }\n\n  function registerDocument(bytes32 sdocHash, bytes32 title, bytes32 releaseDate, bytes32 authorName, bytes32 authorMail) public returns (bool) {\n    return getDocumentStore().registerDocument(sdocHash, title, releaseDate, authorName, authorMail);\n  }\n\n  function registerDocumentAsm(bytes32 sdocHash, bytes32 title, bytes32 releaseDate, bytes32 authorName, bytes32 authorMail) public returns (bool) {\n    return getDocumentStore().registerDocument(sdocHash, title, releaseDate, authorName, authorMail);\n  }\n\n  function getAmountOfDocumentsFromAuthor(bytes32 authorName) public constant returns (uint256 nrOfDocuments) {\n    return getDocumentStore().getAmountOfDocumentsFromAuthor(authorName);\n  }\n\n  //no check on correct indices => responsability of frontend\n  function getDocumentListFromAuthor(bytes32 authorName, uint256 startIndex, uint256 endIndex) public constant returns (bytes32 authorMail, bytes32[pageSize] memory titles, bytes32[pageSize] memory releaseDates)  {\n    return getDocumentStore().getDocumentListFromAuthor(authorName, startIndex, endIndex);\n  }\n\n  //no check on correct indices => responsability of frontend\n  function getDocumentListFromAuthorAsm(bytes32 authorName, uint256 startIndex, uint256 endIndex) public constant returns (bytes32 authorMail, bytes32[pageSize] memory titles, bytes32[pageSize] memory releaseDates)  {\n    return getDocumentStore().getDocumentListFromAuthorAsm(authorName, startIndex, endIndex);\n  }\n}\n",
  "sourcePath": "C:\\Users\\nick\\Documents\\Howest\\Nick\\BDA-SEM2\\Blockchain Development II\\Taken\\DocumentStore\\DocumentStore\\contracts\\DocumentManager.sol",
  "compiler": {
    "name": "solc",
    "version": "0.4.19+commit.c4cbbb05.Emscripten.clang"
  },
  "schemaVersion": "2.0.0",
  "updatedAt": "2018-04-13T19:02:22.513Z"
}