{
  "contractName": "DocumentManager",
  "abi": [
    {
      "constant": false,
      "inputs": [
        {
          "name": "dougAddr",
          "type": "address"
        }
      ],
      "name": "setDougAddress",
      "outputs": [
        {
          "name": "result",
          "type": "bool"
        }
      ],
      "payable": false,
      "stateMutability": "nonpayable",
      "type": "function"
    },
    {
      "constant": false,
      "inputs": [],
      "name": "remove",
      "outputs": [],
      "payable": false,
      "stateMutability": "nonpayable",
      "type": "function"
    },
    {
      "constant": true,
      "inputs": [
        {
          "name": "sdocHash",
          "type": "bytes32"
        }
      ],
      "name": "isDocumentRegistered",
      "outputs": [
        {
          "name": "",
          "type": "bool"
        },
        {
          "name": "",
          "type": "bytes32"
        },
        {
          "name": "",
          "type": "bytes32"
        },
        {
          "name": "",
          "type": "bytes32"
        },
        {
          "name": "",
          "type": "bytes32"
        }
      ],
      "payable": false,
      "stateMutability": "view",
      "type": "function"
    },
    {
      "constant": false,
      "inputs": [
        {
          "name": "sdocHash",
          "type": "bytes32"
        },
        {
          "name": "title",
          "type": "bytes32"
        },
        {
          "name": "releaseDate",
          "type": "bytes32"
        },
        {
          "name": "authorName",
          "type": "bytes32"
        },
        {
          "name": "authorMail",
          "type": "bytes32"
        }
      ],
      "name": "registerDocument",
      "outputs": [
        {
          "name": "",
          "type": "bool"
        }
      ],
      "payable": false,
      "stateMutability": "nonpayable",
      "type": "function"
    },
    {
      "constant": true,
      "inputs": [
        {
          "name": "authorName",
          "type": "bytes32"
        }
      ],
      "name": "getAmountOfDocumentsFromAuthor",
      "outputs": [
        {
          "name": "nrOfDocuments",
          "type": "uint256"
        }
      ],
      "payable": false,
      "stateMutability": "view",
      "type": "function"
    },
    {
      "constant": true,
      "inputs": [
        {
          "name": "authorName",
          "type": "bytes32"
        },
        {
          "name": "startIndex",
          "type": "uint256"
        },
        {
          "name": "endIndex",
          "type": "uint256"
        }
      ],
      "name": "getDocumentListFromAuthor",
      "outputs": [
        {
          "name": "authorMail",
          "type": "bytes32"
        },
        {
          "name": "titles",
          "type": "bytes32[10]"
        },
        {
          "name": "releaseDates",
          "type": "bytes32[10]"
        }
      ],
      "payable": false,
      "stateMutability": "view",
      "type": "function"
    }
  ],
  "bytecode": "0x6060604052341561000f57600080fd5b6108828061001e6000396000f300606060405260043610610078576000357c0100000000000000000000000000000000000000000000000000000000900463ffffffff1680633b55ef341461007d578063618e6ce61461013057806380e2653e146101ab578063818adeef146101fc578063a7f4377914610237578063b67530a41461024c575b600080fd5b341561008857600080fd5b6100b46004808035600019169060200190919080359060200190919080359060200190919050506102bf565b60405180846000191660001916815260200183600a60200280838360005b838110156100ed5780820151818401526020810190506100d2565b5050505090500182600a60200280838360005b8381101561011b578082015181840152602081019050610100565b50505050905001935050505060405180910390f35b341561013b57600080fd5b610155600480803560001916906020019091905050610394565b604051808615151515815260200185600019166000191681526020018460001916600019168152602001836000191660001916815260200182600019166000191681526020019550505050505060405180910390f35b34156101b657600080fd5b6101e2600480803573ffffffffffffffffffffffffffffffffffffffff1690602001909190505061045b565b604051808215151515815260200191505060405180910390f35b341561020757600080fd5b610221600480803560001916906020019091905050610549565b6040518082815260200191505060405180910390f35b341561024257600080fd5b61024a6105e6565b005b341561025757600080fd5b6102a560048080356000191690602001909190803560001916906020019091908035600019169060200190919080356000191690602001909190803560001916906020019091905050610677565b604051808215151515815260200191505060405180910390f35b60006102c961082a565b6102d161082a565b6102d9610758565b73ffffffffffffffffffffffffffffffffffffffff16633b55ef348787876040518463ffffffff167c010000000000000000000000000000000000000000000000000000000002815260040180846000191660001916815260200183815260200182815260200193505050506102a060405180830381600087803b151561035f57600080fd5b5af1151561036c57600080fd5b5050506040518051906020018061014001806101400160405292509250925093509350939050565b60008060008060006103a4610758565b73ffffffffffffffffffffffffffffffffffffffff1663618e6ce6876040518263ffffffff167c010000000000000000000000000000000000000000000000000000000002815260040180826000191660001916815260200191505060a060405180830381600087803b151561041957600080fd5b5af1151561042657600080fd5b505050604051805190602001805190602001805190602001805190602001805190509450945094509450945091939590929450565b6000806000809054906101000a900473ffffffffffffffffffffffffffffffffffffffff1673ffffffffffffffffffffffffffffffffffffffff16141580156104f157506000809054906101000a900473ffffffffffffffffffffffffffffffffffffffff1673ffffffffffffffffffffffffffffffffffffffff163373ffffffffffffffffffffffffffffffffffffffff1614155b156104ff5760009050610544565b816000806101000a81548173ffffffffffffffffffffffffffffffffffffffff021916908373ffffffffffffffffffffffffffffffffffffffff160217905550600190505b919050565b6000610553610758565b73ffffffffffffffffffffffffffffffffffffffff1663818adeef836040518263ffffffff167c0100000000000000000000000000000000000000000000000000000000028152600401808260001916600019168152602001915050602060405180830381600087803b15156105c857600080fd5b5af115156105d557600080fd5b505050604051805190509050919050565b6000809054906101000a900473ffffffffffffffffffffffffffffffffffffffff1673ffffffffffffffffffffffffffffffffffffffff163373ffffffffffffffffffffffffffffffffffffffff161415610675576000809054906101000a900473ffffffffffffffffffffffffffffffffffffffff1673ffffffffffffffffffffffffffffffffffffffff16ff5b565b6000610681610758565b73ffffffffffffffffffffffffffffffffffffffff1663b67530a487878787876040518663ffffffff167c0100000000000000000000000000000000000000000000000000000000028152600401808660001916600019168152602001856000191660001916815260200184600019166000191681526020018360001916600019168152602001826000191660001916815260200195505050505050602060405180830381600087803b151561073657600080fd5b5af1151561074357600080fd5b50505060405180519050905095945050505050565b6000806000809054906101000a900473ffffffffffffffffffffffffffffffffffffffff1673ffffffffffffffffffffffffffffffffffffffff1663ec56a3736040518163ffffffff167c010000000000000000000000000000000000000000000000000000000002815260040180807f646f63756d656e7473746f7265000000000000000000000000000000000000008152506020019050602060405180830381600087803b151561080a57600080fd5b5af1151561081757600080fd5b5050506040518051905090508091505090565b61014060405190810160405280600a905b600080191681526020019060019003908161083b57905050905600a165627a7a7230582065b2a5607f1b2b6bd0cab20126b73423cc5a29d37be8402e9da5417344005b8b0029",
  "source": "pragma solidity ^0.4.17;\r\n\r\nimport './ContractProvider.sol';\r\nimport './DocumentStore.sol';\r\n\r\ncontract DocumentManager is DocumentBase {\r\n\r\n  function getDocumentStore() private view returns (DocumentStore) {\r\n    address documentStoreAddress = ContractProvider(DOUG).contracts(\"documentstore\");\r\n    return DocumentStore(documentStoreAddress);\r\n  }\r\n\r\n  function isDocumentRegistered(bytes32 sdocHash) external constant returns (bool, bytes32, bytes32, bytes32, bytes32) {\r\n    return getDocumentStore().isDocumentRegistered(sdocHash);\r\n  }\r\n\r\n  function registerDocument(bytes32 sdocHash, bytes32 title, bytes32 releaseDate, bytes32 authorName, bytes32 authorMail) external returns (bool) {\r\n    return getDocumentStore().registerDocument(sdocHash, title, releaseDate, authorName, authorMail);\r\n  }\r\n\r\n  function getAmountOfDocumentsFromAuthor(bytes32 authorName) external constant returns (uint256 nrOfDocuments) {\r\n    return getDocumentStore().getAmountOfDocumentsFromAuthor(authorName);\r\n  }\r\n\r\n  //no check on correct indices => responsability of frontend\r\n  function getDocumentListFromAuthor(bytes32 authorName, uint256 startIndex, uint256 endIndex) external constant returns (bytes32 authorMail, bytes32[pageSize] memory titles, bytes32[pageSize] memory releaseDates)  {\r\n    return getDocumentStore().getDocumentListFromAuthor(authorName, startIndex, endIndex);\r\n  }\r\n}",
  "sourcePath": "C:\\Users\\nick\\Documents\\Howest\\Nick\\BDA-SEM2\\Blockchain Development II\\Taken\\DocumentStore\\DocumentStore\\contracts\\DocumentManager.sol",
  "compiler": {
    "name": "solc",
    "version": "0.4.21+commit.dfe3193c.Emscripten.clang"
  },
  "schemaVersion": "2.0.0",
  "updatedAt": "2018-04-12T22:50:44.708Z"
}