{
  "contractName": "Doug",
  "abi": [
    {
      "constant": true,
      "inputs": [],
      "name": "getOwner",
      "outputs": [
        {
          "name": "",
          "type": "address"
        }
      ],
      "payable": false,
      "stateMutability": "view",
      "type": "function"
    },
    {
      "constant": false,
      "inputs": [
        {
          "name": "newOwner",
          "type": "address"
        }
      ],
      "name": "changeOwner",
      "outputs": [],
      "payable": false,
      "stateMutability": "nonpayable",
      "type": "function"
    },
    {
      "constant": false,
      "inputs": [],
      "name": "owned",
      "outputs": [],
      "payable": false,
      "stateMutability": "nonpayable",
      "type": "function"
    },
    {
      "constant": true,
      "inputs": [
        {
          "name": "",
          "type": "bytes32"
        }
      ],
      "name": "contracts",
      "outputs": [
        {
          "name": "",
          "type": "address"
        }
      ],
      "payable": false,
      "stateMutability": "view",
      "type": "function"
    },
    {
      "inputs": [],
      "payable": false,
      "stateMutability": "nonpayable",
      "type": "constructor"
    },
    {
      "constant": false,
      "inputs": [
        {
          "name": "name",
          "type": "bytes32"
        },
        {
          "name": "addr",
          "type": "address"
        }
      ],
      "name": "addContract",
      "outputs": [
        {
          "name": "result",
          "type": "bool"
        }
      ],
      "payable": false,
      "stateMutability": "nonpayable",
      "type": "function"
    },
    {
      "constant": false,
      "inputs": [
        {
          "name": "name",
          "type": "bytes32"
        }
      ],
      "name": "removeContract",
      "outputs": [
        {
          "name": "result",
          "type": "bool"
        }
      ],
      "payable": false,
      "stateMutability": "nonpayable",
      "type": "function"
    },
    {
      "constant": false,
      "inputs": [],
      "name": "remove",
      "outputs": [],
      "payable": false,
      "stateMutability": "nonpayable",
      "type": "function"
    }
  ],
  "bytecode": "0x6060604052341561000f57600080fd5b336000806101000a81548173ffffffffffffffffffffffffffffffffffffffff021916908373ffffffffffffffffffffffffffffffffffffffff1602179055506108d08061005e6000396000f300606060405260043610610083576000357c0100000000000000000000000000000000000000000000000000000000900463ffffffff1680635188f99614610088578063893d20e8146100e6578063a43e04d81461013b578063a6f9dae11461017a578063a7f43779146101b3578063df32754b146101c8578063ec56a373146101dd575b600080fd5b341561009357600080fd5b6100cc60048080356000191690602001909190803573ffffffffffffffffffffffffffffffffffffffff16906020019091905050610244565b604051808215151515815260200191505060405180910390f35b34156100f157600080fd5b6100f96103d3565b604051808273ffffffffffffffffffffffffffffffffffffffff1673ffffffffffffffffffffffffffffffffffffffff16815260200191505060405180910390f35b341561014657600080fd5b6101606004808035600019169060200190919050506103fc565b604051808215151515815260200191505060405180910390f35b341561018557600080fd5b6101b1600480803573ffffffffffffffffffffffffffffffffffffffff1690602001909190505061051c565b005b34156101be57600080fd5b6101c66105b5565b005b34156101d357600080fd5b6101db61082f565b005b34156101e857600080fd5b610202600480803560001916906020019091905050610871565b604051808273ffffffffffffffffffffffffffffffffffffffff1673ffffffffffffffffffffffffffffffffffffffff16815260200191505060405180910390f35b6000806000809054906101000a900473ffffffffffffffffffffffffffffffffffffffff1673ffffffffffffffffffffffffffffffffffffffff163373ffffffffffffffffffffffffffffffffffffffff1614156103cc578290508073ffffffffffffffffffffffffffffffffffffffff166380e2653e306000604051602001526040518263ffffffff167c0100000000000000000000000000000000000000000000000000000000028152600401808273ffffffffffffffffffffffffffffffffffffffff1673ffffffffffffffffffffffffffffffffffffffff168152602001915050602060405180830381600087803b151561034257600080fd5b6102c65a03f1151561035357600080fd5b50505060405180519050151561036c57600091506103cb565b8260016000866000191660001916815260200190815260200160002060006101000a81548173ffffffffffffffffffffffffffffffffffffffff021916908373ffffffffffffffffffffffffffffffffffffffff160217905550600191505b5b5092915050565b60008060009054906101000a900473ffffffffffffffffffffffffffffffffffffffff16905090565b60008060009054906101000a900473ffffffffffffffffffffffffffffffffffffffff1673ffffffffffffffffffffffffffffffffffffffff163373ffffffffffffffffffffffffffffffffffffffff16141561051757600060016000846000191660001916815260200190815260200160002060009054906101000a900473ffffffffffffffffffffffffffffffffffffffff1673ffffffffffffffffffffffffffffffffffffffff1614156104b65760009050610516565b600060016000846000191660001916815260200190815260200160002060006101000a81548173ffffffffffffffffffffffffffffffffffffffff021916908373ffffffffffffffffffffffffffffffffffffffff160217905550600190505b5b919050565b6000809054906101000a900473ffffffffffffffffffffffffffffffffffffffff1673ffffffffffffffffffffffffffffffffffffffff163373ffffffffffffffffffffffffffffffffffffffff1614156105b257806000806101000a81548173ffffffffffffffffffffffffffffffffffffffff021916908373ffffffffffffffffffffffffffffffffffffffff1602179055505b50565b6000806000809054906101000a900473ffffffffffffffffffffffffffffffffffffffff1673ffffffffffffffffffffffffffffffffffffffff163373ffffffffffffffffffffffffffffffffffffffff16141561082b57600160007f646f63756d656e746d616e61676572000000000000000000000000000000000060001916815260200190815260200160002060009054906101000a900473ffffffffffffffffffffffffffffffffffffffff169150600160007f646f63756d656e7473746f72650000000000000000000000000000000000000060001916815260200190815260200160002060009054906101000a900473ffffffffffffffffffffffffffffffffffffffff16905060008273ffffffffffffffffffffffffffffffffffffffff16141515610759578173ffffffffffffffffffffffffffffffffffffffff1663a7f437796040518163ffffffff167c0100000000000000000000000000000000000000000000000000000000028152600401600060405180830381600087803b151561074457600080fd5b6102c65a03f1151561075557600080fd5b5050505b60008173ffffffffffffffffffffffffffffffffffffffff161415156107f1578073ffffffffffffffffffffffffffffffffffffffff1663a7f437796040518163ffffffff167c0100000000000000000000000000000000000000000000000000000000028152600401600060405180830381600087803b15156107dc57600080fd5b6102c65a03f115156107ed57600080fd5b5050505b6000809054906101000a900473ffffffffffffffffffffffffffffffffffffffff1673ffffffffffffffffffffffffffffffffffffffff16ff5b5050565b336000806101000a81548173ffffffffffffffffffffffffffffffffffffffff021916908373ffffffffffffffffffffffffffffffffffffffff160217905550565b60016020528060005260406000206000915054906101000a900473ffffffffffffffffffffffffffffffffffffffff16815600a165627a7a72305820984420cc0c42a5aae25f70e8a62a81cfbdca0b486c772cff795e32ae96d7408c0029",
  "source": "pragma solidity ^0.4.17;\n\nimport './Owned.sol';\nimport './DougEnabled.sol';\n\ncontract Doug is Owned {\n\n  mapping (bytes32 => address) public contracts;\n\n  function Doug() public {\n    owner = msg.sender;\n  }\n\n  function addContract(bytes32 name, address addr) public onlyOwner returns (bool result) {\n    DougEnabled de = DougEnabled(addr);\n    if (!de.setDougAddress(address(this))) { \n      return false; \n    }\n\n    contracts[name] = addr;\n    return true;\n  }\n\n  function removeContract(bytes32 name) public onlyOwner returns (bool result) {\n    if (contracts[name] == 0x0) {\n      return false;\n    }\n\n    contracts[name] = 0x0;\n    return true;\n  }\n\n  function remove() public onlyOwner {\n    address documentmanager = contracts[\"documentmanager\"];\n    address documentstore = contracts[\"documentstore\"];\n\n    if (documentmanager != 0x0) { DougEnabled(documentmanager).remove(); }\n    if (documentstore != 0x0) { DougEnabled(documentstore).remove(); }\n\n    selfdestruct(owner);\n  }\n}",
  "sourcePath": "C:\\Users\\nick\\Documents\\Howest\\Nick\\BDA-SEM2\\Blockchain Development II\\Taken\\DocumentStore\\DocumentStore\\contracts\\Doug.sol",
  "compiler": {
    "name": "solc",
    "version": "0.4.19+commit.c4cbbb05.Emscripten.clang"
  },
  "schemaVersion": "2.0.0",
  "updatedAt": "2018-04-13T19:02:22.519Z"
}