{
  "contractName": "LetterOfCredit",
  "abi": [
    {
      "constant": false,
      "inputs": [
        {
          "name": "sdocHash",
          "type": "string"
        },
        {
          "name": "title",
          "type": "bytes32"
        },
        {
          "name": "releaseDate",
          "type": "bytes32"
        },
        {
          "name": "authorName",
          "type": "bytes32"
        },
        {
          "name": "authorMail",
          "type": "bytes32"
        }
      ],
      "name": "registerDocument",
      "outputs": [
        {
          "name": "",
          "type": "bool"
        },
        {
          "name": "",
          "type": "bytes32"
        },
        {
          "name": "",
          "type": "bytes32"
        },
        {
          "name": "",
          "type": "bytes32"
        },
        {
          "name": "",
          "type": "bytes32"
        }
      ],
      "payable": false,
      "stateMutability": "nonpayable",
      "type": "function"
    },
    {
      "constant": true,
      "inputs": [
        {
          "name": "authorName",
          "type": "bytes32"
        }
      ],
      "name": "getDocumentListFromAuthor",
      "outputs": [
        {
          "name": "nrOfDocuments",
          "type": "uint256"
        },
        {
          "name": "authorMail",
          "type": "bytes32"
        },
        {
          "name": "titles",
          "type": "bytes32[50]"
        },
        {
          "name": "releaseDates",
          "type": "bytes32[50]"
        }
      ],
      "payable": false,
      "stateMutability": "view",
      "type": "function"
    },
    {
      "constant": false,
      "inputs": [
        {
          "name": "dougAddr",
          "type": "address"
        }
      ],
      "name": "setDougAddress",
      "outputs": [
        {
          "name": "result",
          "type": "bool"
        }
      ],
      "payable": false,
      "stateMutability": "nonpayable",
      "type": "function"
    },
    {
      "constant": true,
      "inputs": [
        {
          "name": "sdocHash",
          "type": "string"
        }
      ],
      "name": "isDocumentRegistered",
      "outputs": [
        {
          "name": "",
          "type": "bool"
        },
        {
          "name": "",
          "type": "bytes32"
        },
        {
          "name": "",
          "type": "bytes32"
        },
        {
          "name": "",
          "type": "bytes32"
        },
        {
          "name": "",
          "type": "bytes32"
        }
      ],
      "payable": false,
      "stateMutability": "view",
      "type": "function"
    },
    {
      "constant": true,
      "inputs": [],
      "name": "isLocManager",
      "outputs": [
        {
          "name": "",
          "type": "bool"
        }
      ],
      "payable": false,
      "stateMutability": "view",
      "type": "function"
    },
    {
      "constant": false,
      "inputs": [],
      "name": "remove",
      "outputs": [],
      "payable": false,
      "stateMutability": "nonpayable",
      "type": "function"
    }
  ],
  "bytecode": "0x6060604052341561000f57600080fd5b610c278061001e6000396000f300606060405260043610610078576000357c0100000000000000000000000000000000000000000000000000000000900463ffffffff1680636908498d1461007d5780636f6e08ab1461013357806380e2653e146101db5780638c2840cc1461022c5780639ecfd08a146102ae578063a7f43779146102db575b600080fd5b341561008857600080fd5b6100dd60048080359060200190820180359060200191909192908035600019169060200190919080356000191690602001909190803560001916906020019091908035600019169060200190919050506102f0565b604051808615151515815260200185600019166000191681526020018460001916600019168152602001836000191660001916815260200182600019166000191681526020019550505050505060405180910390f35b341561013e57600080fd5b610158600480803560001916906020019091905050610524565b60405180858152602001846000191660001916815260200183603260200280838360005b8381101561019757808201518184015260208101905061017c565b5050505090500182603260200280838360005b838110156101c55780820151818401526020810190506101aa565b5050505090500194505050505060405180910390f35b34156101e657600080fd5b610212600480803573ffffffffffffffffffffffffffffffffffffffff16906020019091905050610708565b604051808215151515815260200191505060405180910390f35b341561023757600080fd5b610258600480803590602001908201803590602001919091929050506107f6565b604051808615151515815260200185600019166000191681526020018460001916600019168152602001836000191660001916815260200182600019166000191681526020019550505050505060405180910390f35b34156102b957600080fd5b6102c16109e6565b604051808215151515815260200191505060405180910390f35b34156102e657600080fd5b6102ee610b3e565b005b6000806000806000806103016109e6565b151561030c57600080fd5b6000809054906101000a900473ffffffffffffffffffffffffffffffffffffffff1673ffffffffffffffffffffffffffffffffffffffff1663ec56a3736000604051602001526040518163ffffffff167c010000000000000000000000000000000000000000000000000000000002815260040180807f6c6f6364620000000000000000000000000000000000000000000000000000008152506020019050602060405180830381600087803b15156103c457600080fd5b6102c65a03f115156103d557600080fd5b50505060405180519050905060008173ffffffffffffffffffffffffffffffffffffffff161415151561040757600080fd5b8073ffffffffffffffffffffffffffffffffffffffff16636908498d8d8d8d8d8d8d600060405160a001526040518763ffffffff167c0100000000000000000000000000000000000000000000000000000000028152600401808060200186600019166000191681526020018560001916600019168152602001846000191660001916815260200183600019166000191681526020018281038252888882818152602001925080828437820191505097505050505050505060a060405180830381600087803b15156104d857600080fd5b6102c65a03f115156104e957600080fd5b505050604051805190602001805190602001805190602001805190602001805190509550955095509550955050965096509650965096915050565b60008061052f610bcf565b610537610bcf565b60006105416109e6565b151561054c57600080fd5b6000809054906101000a900473ffffffffffffffffffffffffffffffffffffffff1673ffffffffffffffffffffffffffffffffffffffff1663ec56a3736000604051602001526040518163ffffffff167c010000000000000000000000000000000000000000000000000000000002815260040180807f6c6f6364620000000000000000000000000000000000000000000000000000008152506020019050602060405180830381600087803b151561060457600080fd5b6102c65a03f1151561061557600080fd5b50505060405180519050905060008173ffffffffffffffffffffffffffffffffffffffff161415151561064757600080fd5b8073ffffffffffffffffffffffffffffffffffffffff16636f6e08ab876000604051610cc001526040518263ffffffff167c0100000000000000000000000000000000000000000000000000000000028152600401808260001916600019168152602001915050610cc060405180830381600087803b15156106c857600080fd5b6102c65a03f115156106d957600080fd5b505050604051805190602001805190602001806106400180610640016040529450945094509450509193509193565b6000806000809054906101000a900473ffffffffffffffffffffffffffffffffffffffff1673ffffffffffffffffffffffffffffffffffffffff161415801561079e57506000809054906101000a900473ffffffffffffffffffffffffffffffffffffffff1673ffffffffffffffffffffffffffffffffffffffff163373ffffffffffffffffffffffffffffffffffffffff1614155b156107ac57600090506107f1565b816000806101000a81548173ffffffffffffffffffffffffffffffffffffffff021916908373ffffffffffffffffffffffffffffffffffffffff160217905550600190505b919050565b6000806000806000806108076109e6565b151561081257600080fd5b6000809054906101000a900473ffffffffffffffffffffffffffffffffffffffff1673ffffffffffffffffffffffffffffffffffffffff1663ec56a3736000604051602001526040518163ffffffff167c010000000000000000000000000000000000000000000000000000000002815260040180807f6c6f6364620000000000000000000000000000000000000000000000000000008152506020019050602060405180830381600087803b15156108ca57600080fd5b6102c65a03f115156108db57600080fd5b50505060405180519050905060008173ffffffffffffffffffffffffffffffffffffffff161415151561090d57600080fd5b8073ffffffffffffffffffffffffffffffffffffffff16638c2840cc8989600060405160a001526040518363ffffffff167c0100000000000000000000000000000000000000000000000000000000028152600401808060200182810382528484828181526020019250808284378201915050935050505060a060405180830381600087803b151561099e57600080fd5b6102c65a03f115156109af57600080fd5b5050506040518051906020018051906020018051906020018051906020018051905095509550955095509550509295509295909350565b60008060008060009054906101000a900473ffffffffffffffffffffffffffffffffffffffff1673ffffffffffffffffffffffffffffffffffffffff16141515610b35576000809054906101000a900473ffffffffffffffffffffffffffffffffffffffff1673ffffffffffffffffffffffffffffffffffffffff1663ec56a3736000604051602001526040518163ffffffff167c010000000000000000000000000000000000000000000000000000000002815260040180807f6c6f636d616e61676572000000000000000000000000000000000000000000008152506020019050602060405180830381600087803b1515610ae257600080fd5b6102c65a03f11515610af357600080fd5b5050506040518051905090508073ffffffffffffffffffffffffffffffffffffffff163373ffffffffffffffffffffffffffffffffffffffff16149150610b3a565b600091505b5090565b6000809054906101000a900473ffffffffffffffffffffffffffffffffffffffff1673ffffffffffffffffffffffffffffffffffffffff163373ffffffffffffffffffffffffffffffffffffffff161415610bcd576000809054906101000a900473ffffffffffffffffffffffffffffffffffffffff1673ffffffffffffffffffffffffffffffffffffffff16ff5b565b610640604051908101604052806032905b6000801916815260200190600190039081610be057905050905600a165627a7a72305820fc1faac8ed3253641e6fe1f70e846a7e03ecb1aa78f11be50ffaae00662cafdf0029",
  "source": "pragma solidity ^0.4.17;\n\nimport './LocManagerEnabled.sol';\nimport './ContractProvider.sol';\nimport './LetterOfCreditDb.sol';\n\ncontract LetterOfCredit is LocManagerEnabled {\n\n  function isDocumentRegistered(string sdocHash) external constant returns (bool, bytes32, bytes32, bytes32, bytes32) {\n    require(isLocManager());\n    address locdb = ContractProvider(DOUG).contracts(\"locdb\");\n    require(locdb != 0x0);\n    return LetterOfCreditDb(locdb).isDocumentRegistered(sdocHash);\n  }\n\n  function registerDocument(string sdocHash, bytes32 title, bytes32 releaseDate, bytes32 authorName, bytes32 authorMail) external returns (bool, bytes32, bytes32, bytes32, bytes32) {\n    require(isLocManager());\n    address locdb = ContractProvider(DOUG).contracts(\"locdb\");\n    require(locdb != 0x0);\n    return LetterOfCreditDb(locdb).registerDocument(sdocHash, title, releaseDate, authorName, authorMail);\n  }\n\n  function getDocumentListFromAuthor(bytes32 authorName) external constant returns (uint256 nrOfDocuments, bytes32 authorMail, bytes32[50] titles, bytes32[50] releaseDates) {\n    require(isLocManager());\n    address locdb = ContractProvider(DOUG).contracts(\"locdb\");\n    require(locdb != 0x0);\n    return LetterOfCreditDb(locdb).getDocumentListFromAuthor(authorName);\n  }\n}\n",
  "sourcePath": "C:\\Users\\nick\\Documents\\Howest\\Nick\\BDA-SEM2\\Blockchain Development II\\Taken\\DocumentStore\\contracts\\LetterOfCredit.sol",
  "compiler": {
    "name": "solc",
    "version": "0.4.18+commit.9cf6e910.Emscripten.clang"
  },
  "schemaVersion": "1.0.1",
  "updatedAt": "2018-04-07T12:41:35.768Z"
}