{
  "contractName": "LetterOfCreditDb",
  "abi": [
    {
      "constant": false,
      "inputs": [
        {
          "name": "sdocHash",
          "type": "string"
        },
        {
          "name": "title",
          "type": "bytes32"
        },
        {
          "name": "releaseDate",
          "type": "bytes32"
        },
        {
          "name": "authorName",
          "type": "bytes32"
        },
        {
          "name": "authorMail",
          "type": "bytes32"
        }
      ],
      "name": "registerDocument",
      "outputs": [
        {
          "name": "",
          "type": "bool"
        },
        {
          "name": "",
          "type": "bytes32"
        },
        {
          "name": "",
          "type": "bytes32"
        },
        {
          "name": "",
          "type": "bytes32"
        },
        {
          "name": "",
          "type": "bytes32"
        }
      ],
      "payable": false,
      "stateMutability": "nonpayable",
      "type": "function"
    },
    {
      "constant": true,
      "inputs": [
        {
          "name": "authorName",
          "type": "bytes32"
        }
      ],
      "name": "getDocumentListFromAuthor",
      "outputs": [
        {
          "name": "nrOfDocuments",
          "type": "uint256"
        },
        {
          "name": "authorMail",
          "type": "bytes32"
        },
        {
          "name": "titles",
          "type": "bytes32[50]"
        },
        {
          "name": "releaseDates",
          "type": "bytes32[50]"
        }
      ],
      "payable": false,
      "stateMutability": "view",
      "type": "function"
    },
    {
      "constant": false,
      "inputs": [
        {
          "name": "dougAddr",
          "type": "address"
        }
      ],
      "name": "setDougAddress",
      "outputs": [
        {
          "name": "result",
          "type": "bool"
        }
      ],
      "payable": false,
      "stateMutability": "nonpayable",
      "type": "function"
    },
    {
      "constant": true,
      "inputs": [
        {
          "name": "sdocHash",
          "type": "string"
        }
      ],
      "name": "isDocumentRegistered",
      "outputs": [
        {
          "name": "",
          "type": "bool"
        },
        {
          "name": "",
          "type": "bytes32"
        },
        {
          "name": "",
          "type": "bytes32"
        },
        {
          "name": "",
          "type": "bytes32"
        },
        {
          "name": "",
          "type": "bytes32"
        }
      ],
      "payable": false,
      "stateMutability": "view",
      "type": "function"
    },
    {
      "constant": false,
      "inputs": [],
      "name": "remove",
      "outputs": [],
      "payable": false,
      "stateMutability": "nonpayable",
      "type": "function"
    },
    {
      "anonymous": false,
      "inputs": [
        {
          "indexed": false,
          "name": "succes",
          "type": "bool"
        },
        {
          "indexed": false,
          "name": "docHash",
          "type": "bytes32"
        }
      ],
      "name": "DocumentRegistered",
      "type": "event"
    }
  ],
  "bytecode": "0x6060604052341561000f57600080fd5b610e8d8061001e6000396000f30060606040526004361061006d576000357c0100000000000000000000000000000000000000000000000000000000900463ffffffff1680636908498d146100725780636f6e08ab1461012857806380e2653e146101d05780638c2840cc14610221578063a7f43779146102a3575b600080fd5b341561007d57600080fd5b6100d260048080359060200190820180359060200191909192908035600019169060200190919080356000191690602001909190803560001916906020019091908035600019169060200190919050506102b8565b604051808615151515815260200185600019166000191681526020018460001916600019168152602001836000191660001916815260200182600019166000191681526020019550505050505060405180910390f35b341561013357600080fd5b61014d6004808035600019169060200190919050506106e8565b60405180858152602001846000191660001916815260200183603260200280838360005b8381101561018c578082015181840152602081019050610171565b5050505090500182603260200280838360005b838110156101ba57808201518184015260208101905061019f565b5050505090500194505050505060405180910390f35b34156101db57600080fd5b610207600480803573ffffffffffffffffffffffffffffffffffffffff169060200190919050506109ec565b604051808215151515815260200191505060405180910390f35b341561022c57600080fd5b61024d60048080359060200190820180359060200191909192905050610ada565b604051808615151515815260200185600019166000191681526020018460001916600019168152602001836000191660001916815260200182600019166000191681526020019550505050505060405180910390f35b34156102ae57600080fd5b6102b6610d53565b005b6000806000806000806000806000809054906101000a900473ffffffffffffffffffffffffffffffffffffffff1673ffffffffffffffffffffffffffffffffffffffff161415151561030957600080fd5b6000809054906101000a900473ffffffffffffffffffffffffffffffffffffffff1673ffffffffffffffffffffffffffffffffffffffff1663ec56a3736000604051602001526040518163ffffffff167c010000000000000000000000000000000000000000000000000000000002815260040180807f6c6f6300000000000000000000000000000000000000000000000000000000008152506020019050602060405180830381600087803b15156103c157600080fd5b6102c65a03f115156103d257600080fd5b5050506040518051905091508173ffffffffffffffffffffffffffffffffffffffff163373ffffffffffffffffffffffffffffffffffffffff1614151561041857600080fd5b8c8c604051808383808284378201915050925050506040518091039020905060016000826000191660001916815260200190815260200160002060000160009054906101000a900460ff1615610547577f835b3b92758f7950f0bcdf052ba38753635dc77d2e3b42bd627eab5e7bcc18ba600082604051808315151515815260200182600019166000191681526020019250505060405180910390a1600060016000836000191660001916815260200190815260200160002060010154600160008460001916600019168152602001908152602001600020600201546001600085600019166000191681526020019081526020016000206003016000015460016000866000191660001916815260200190815260200160002060030160010154965096509650965096506106d8565b6080604051908101604052806001151581526020018c6000191681526020018b60001916815260200160408051908101604052808c6000191681526020018b6000191681525081525060016000836000191660001916815260200190815260200160002060008201518160000160006101000a81548160ff021916908315150217905550602082015181600101906000191690556040820151816002019060001916905560608201518160030160008201518160000190600019169055602082015181600101906000191690555050905050600260008a6000191660001916815260200190815260200160002080548060010182816106469190610de4565b9160005260206000209001600083909190915090600019169055507f835b3b92758f7950f0bcdf052ba38753635dc77d2e3b42bd627eab5e7bcc18ba600182604051808315151515815260200182600019166000191681526020019250505060405180910390a16001600080600080836001029350826001029250816001029150806001029050965096509650965096505b5050965096509650965096915050565b6000806106f3610e10565b6106fb610e10565b60008060008060009054906101000a900473ffffffffffffffffffffffffffffffffffffffff1673ffffffffffffffffffffffffffffffffffffffff161415151561074557600080fd5b6000809054906101000a900473ffffffffffffffffffffffffffffffffffffffff1673ffffffffffffffffffffffffffffffffffffffff1663ec56a3736000604051602001526040518163ffffffff167c010000000000000000000000000000000000000000000000000000000002815260040180807f6c6f6300000000000000000000000000000000000000000000000000000000008152506020019050602060405180830381600087803b15156107fd57600080fd5b6102c65a03f1151561080e57600080fd5b5050506040518051905091508173ffffffffffffffffffffffffffffffffffffffff163373ffffffffffffffffffffffffffffffffffffffff1614151561085457600080fd5b60026000886000191660001916815260200190815260200160002080549050955060008611156109d75760016000600260008a6000191660001916815260200190815260200160002060008154811015156108ab57fe5b90600052602060002090015460001916600019168152602001908152602001600020600301600101549450600090505b858110156109d65760016000600260008a600019166000191681526020019081526020016000208381548110151561090f57fe5b9060005260206000209001546000191660001916815260200190815260200160002060010154848260328110151561094357fe5b6020020190600019169081600019168152505060016000600260008a600019166000191681526020019081526020016000208381548110151561098257fe5b906000526020600020900154600019166000191681526020019081526020016000206002015483826032811015156109b657fe5b6020020190600019169081600019168152505080806001019150506108db565b5b85858585955095509550955050509193509193565b6000806000809054906101000a900473ffffffffffffffffffffffffffffffffffffffff1673ffffffffffffffffffffffffffffffffffffffff1614158015610a8257506000809054906101000a900473ffffffffffffffffffffffffffffffffffffffff1673ffffffffffffffffffffffffffffffffffffffff163373ffffffffffffffffffffffffffffffffffffffff1614155b15610a905760009050610ad5565b816000806101000a81548173ffffffffffffffffffffffffffffffffffffffff021916908373ffffffffffffffffffffffffffffffffffffffff160217905550600190505b919050565b6000806000806000806000806000809054906101000a900473ffffffffffffffffffffffffffffffffffffffff1673ffffffffffffffffffffffffffffffffffffffff1614151515610b2b57600080fd5b6000809054906101000a900473ffffffffffffffffffffffffffffffffffffffff1673ffffffffffffffffffffffffffffffffffffffff1663ec56a3736000604051602001526040518163ffffffff167c010000000000000000000000000000000000000000000000000000000002815260040180807f6c6f6300000000000000000000000000000000000000000000000000000000008152506020019050602060405180830381600087803b1515610be357600080fd5b6102c65a03f11515610bf457600080fd5b5050506040518051905091508173ffffffffffffffffffffffffffffffffffffffff163373ffffffffffffffffffffffffffffffffffffffff16141515610c3a57600080fd5b8888604051808383808284378201915050925050506040518091039020905060016000826000191660001916815260200190815260200160002060000160009054906101000a900460ff1615610d1c57600180600083600019166000191681526020019081526020016000206001015460016000846000191660001916815260200190815260200160002060020154600160008560001916600019168152602001908152602001600020600301600001546001600086600019166000191681526020019081526020016000206003016001015496509650965096509650610d47565b6000806000806000836001029350826001029250816001029150806001029050965096509650965096505b50509295509295909350565b6000809054906101000a900473ffffffffffffffffffffffffffffffffffffffff1673ffffffffffffffffffffffffffffffffffffffff163373ffffffffffffffffffffffffffffffffffffffff161415610de2576000809054906101000a900473ffffffffffffffffffffffffffffffffffffffff1673ffffffffffffffffffffffffffffffffffffffff16ff5b565b815481835581811511610e0b57818360005260206000209182019101610e0a9190610e3c565b5b505050565b610640604051908101604052806032905b6000801916815260200190600190039081610e215790505090565b610e5e91905b80821115610e5a576000816000905550600101610e42565b5090565b905600a165627a7a72305820082276ed47f678f07a04aac5ddcf8fa367d0623ce0ec27f785a92cf1b6e847650029",
  "source": "pragma solidity ^0.4.17;\r\n\r\nimport './DougEnabled.sol';\r\nimport './ContractProvider.sol';\r\n\r\ncontract LetterOfCreditDb is DougEnabled {\r\n\r\n    event DocumentRegistered(bool succes, bytes32 docHash);\r\n\r\n    struct Author {\r\n      bytes32 name;\r\n      bytes32 mail;\r\n    }\r\n\r\n    struct Document {\r\n      bool isEntity;\r\n      bytes32 title;\r\n      bytes32 releaseDate;\r\n      Author author;\r\n    }\r\n\r\n    mapping(bytes32 => Document) private documents; //documents[docHash] = Document\r\n    mapping(bytes32 => bytes32[]) private documentsOfAuthor; //documentsOfAuthor[authorName] = array of docHashes\r\n\r\n    function isDocumentRegistered(string sdocHash) external constant returns (bool, bytes32, bytes32, bytes32, bytes32) {\r\n      require(DOUG != 0x0);\r\n      address loc = ContractProvider(DOUG).contracts(\"loc\");\r\n      require(msg.sender == loc);\r\n\r\n      bytes32 docHash = bytes32(keccak256(sdocHash));\r\n      if (documents[docHash].isEntity)\r\n          return (true, documents[docHash].title, documents[docHash].releaseDate, documents[docHash].author.name, documents[docHash].author.mail);\r\n      else\r\n          return (false, 0x0, 0x0, 0x0, 0x0);\r\n    }\r\n\r\n    //if already registered return metadata\r\n    function registerDocument(string sdocHash, bytes32 title, bytes32 releaseDate, bytes32 authorName, bytes32 authorMail) external returns (bool, bytes32, bytes32, bytes32, bytes32) {\r\n        require(DOUG != 0x0);\r\n        address loc = ContractProvider(DOUG).contracts(\"loc\");\r\n        require(msg.sender == loc);\r\n\r\n        bytes32 docHash = bytes32(keccak256(sdocHash));\r\n        if (documents[docHash].isEntity) {\r\n          DocumentRegistered(false, docHash);\r\n          return (false, documents[docHash].title, documents[docHash].releaseDate, documents[docHash].author.name, documents[docHash].author.mail);\r\n        }\r\n        else {\r\n          documents[docHash] = Document(true, title, releaseDate, Author(authorName, authorMail));\r\n          documentsOfAuthor[authorName].push(docHash);\r\n          DocumentRegistered(true, docHash);\r\n          return (true, 0x0, 0x0, 0x0, 0x0);\r\n        }\r\n    }\r\n\r\n\t//nog functie maken om aantal van author op te vragen + hier extra parameters: fromIndex, amount\r\n\t//contracten kunnen namelijk geen dynamic arrays uitwisselen onder elkaar\r\n    function getDocumentListFromAuthor(bytes32 authorName) external constant returns (uint256 nrOfDocuments, bytes32 authorMail, bytes32[50] titles, bytes32[50] releaseDates) {\r\n        require(DOUG != 0x0);\r\n        address loc = ContractProvider(DOUG).contracts(\"loc\");\r\n        require(msg.sender == loc);\r\n\r\n        nrOfDocuments = documentsOfAuthor[authorName].length;\r\n        if (nrOfDocuments > 0) {\r\n            //titles = new bytes32[](nrOfDocuments);\r\n            //releaseDates = new bytes32[](nrOfDocuments);\r\n            authorMail = documents[documentsOfAuthor[authorName][0]].author.mail;\r\n            for (uint i=0; i<nrOfDocuments; i++) {\r\n                titles[i] = documents[documentsOfAuthor[authorName][i]].title;\r\n                releaseDates[i] = documents[documentsOfAuthor[authorName][i]].releaseDate;\r\n            }\r\n        }\r\n        return (nrOfDocuments, authorMail, titles, releaseDates);\r\n    }\r\n\r\n    /* function getDocumentListFromAuthorAsm(bytes32 authorName) public constant returns (uint256 nrOfDocuments, bytes32 authorMail, bytes32[50] titles, bytes32[50] releaseDates) {\r\n        require(DOUG != 0x0);\r\n        address loc = ContractProvider(DOUG).contracts(\"loc\");\r\n        require(msg.sender == loc);\r\n\r\n        nrOfDocuments = documentsOfAuthor[authorName].length;\r\n        if (nrOfDocuments > 0) {\r\n            titles = new bytes32[](nrOfDocuments);\r\n            releaseDates = new bytes32[](nrOfDocuments);\r\n            authorMail = documents[documentsOfAuthor[authorName][0]].author.mail;\r\n            //??? hoe deze loop als assembly schrijven?\r\n            for (uint i=0; i<nrOfDocuments; i++) {\r\n                titles[i] = documents[documentsOfAuthor[authorName][i]].title;\r\n                releaseDates[i] = documents[documentsOfAuthor[authorName][i]].releaseDate;\r\n            }\r\n            // => moesten titels, releaseDates in storage opgeslagen zijn als bytes32[] dan geen probleem:\r\n            // bytes32[] t; //stel storage heeft dit met titels\r\n            // bytes32[] r; //stel storage heeft dit met releaseDates\r\n            // assembly {\r\n            //     for\r\n            //         { let i := 0 }\r\n            //         lt(i, nrOfDocuments)\r\n            //         { i := add(i, 1) }\r\n            //     {\r\n            //         mstore(add(titles, mul(add(i, 1), 0x20)), sload(add(t_slot, i)))\r\n            //         mstore(add(releaseDates, mul(add(i, 1), 0x20)), sload(add(r_slot, i)))\r\n            //     }\r\n            //}\r\n        }\r\n        return (nrOfDocuments, authorMail, titles, releaseDates);\r\n    } */\r\n}\r\n",
  "sourcePath": "C:\\Users\\nick\\Documents\\Howest\\Nick\\BDA-SEM2\\Blockchain Development II\\Taken\\DocumentStore\\contracts\\LetterOfCreditDb.sol",
  "compiler": {
    "name": "solc",
    "version": "0.4.18+commit.9cf6e910.Emscripten.clang"
  },
  "schemaVersion": "1.0.1",
  "updatedAt": "2018-04-07T12:41:35.781Z"
}