{
  "contractName": "LocManager",
  "abi": [
    {
      "constant": false,
      "inputs": [
        {
          "name": "sdocHash",
          "type": "string"
        },
        {
          "name": "title",
          "type": "bytes32"
        },
        {
          "name": "releaseDate",
          "type": "bytes32"
        },
        {
          "name": "authorName",
          "type": "bytes32"
        },
        {
          "name": "authorMail",
          "type": "bytes32"
        }
      ],
      "name": "registerDocument",
      "outputs": [
        {
          "name": "",
          "type": "bool"
        },
        {
          "name": "",
          "type": "bytes32"
        },
        {
          "name": "",
          "type": "bytes32"
        },
        {
          "name": "",
          "type": "bytes32"
        },
        {
          "name": "",
          "type": "bytes32"
        }
      ],
      "payable": false,
      "stateMutability": "nonpayable",
      "type": "function"
    },
    {
      "constant": true,
      "inputs": [
        {
          "name": "authorName",
          "type": "bytes32"
        }
      ],
      "name": "getDocumentListFromAuthor",
      "outputs": [
        {
          "name": "nrOfDocuments",
          "type": "uint256"
        },
        {
          "name": "authorMail",
          "type": "bytes32"
        },
        {
          "name": "titles",
          "type": "bytes32[50]"
        },
        {
          "name": "releaseDates",
          "type": "bytes32[50]"
        }
      ],
      "payable": false,
      "stateMutability": "view",
      "type": "function"
    },
    {
      "constant": false,
      "inputs": [
        {
          "name": "dougAddr",
          "type": "address"
        }
      ],
      "name": "setDougAddress",
      "outputs": [
        {
          "name": "result",
          "type": "bool"
        }
      ],
      "payable": false,
      "stateMutability": "nonpayable",
      "type": "function"
    },
    {
      "constant": true,
      "inputs": [],
      "name": "getOwner",
      "outputs": [
        {
          "name": "",
          "type": "address"
        }
      ],
      "payable": false,
      "stateMutability": "view",
      "type": "function"
    },
    {
      "constant": true,
      "inputs": [
        {
          "name": "sdocHash",
          "type": "string"
        }
      ],
      "name": "isDocumentRegistered",
      "outputs": [
        {
          "name": "",
          "type": "bool"
        },
        {
          "name": "",
          "type": "bytes32"
        },
        {
          "name": "",
          "type": "bytes32"
        },
        {
          "name": "",
          "type": "bytes32"
        },
        {
          "name": "",
          "type": "bytes32"
        }
      ],
      "payable": false,
      "stateMutability": "view",
      "type": "function"
    },
    {
      "constant": false,
      "inputs": [
        {
          "name": "newOwner",
          "type": "address"
        }
      ],
      "name": "changeOwner",
      "outputs": [],
      "payable": false,
      "stateMutability": "nonpayable",
      "type": "function"
    },
    {
      "constant": false,
      "inputs": [],
      "name": "remove",
      "outputs": [],
      "payable": false,
      "stateMutability": "nonpayable",
      "type": "function"
    },
    {
      "constant": false,
      "inputs": [
        {
          "name": "addr",
          "type": "address"
        },
        {
          "name": "permLvl",
          "type": "uint8"
        }
      ],
      "name": "setPermission",
      "outputs": [
        {
          "name": "res",
          "type": "bool"
        }
      ],
      "payable": false,
      "stateMutability": "nonpayable",
      "type": "function"
    },
    {
      "constant": false,
      "inputs": [],
      "name": "owned",
      "outputs": [],
      "payable": false,
      "stateMutability": "nonpayable",
      "type": "function"
    },
    {
      "inputs": [],
      "payable": false,
      "stateMutability": "nonpayable",
      "type": "constructor"
    }
  ],
  "bytecode": "0x6060604052341561000f57600080fd5b336000806101000a81548173ffffffffffffffffffffffffffffffffffffffff021916908373ffffffffffffffffffffffffffffffffffffffff160217905550610fbe8061005e6000396000f300606060405260043610610099576000357c0100000000000000000000000000000000000000000000000000000000900463ffffffff1680636908498d1461009e5780636f6e08ab1461018357806380e2653e1461022b578063893d20e81461027c5780638c2840cc146102d1578063a6f9dae114610382578063a7f43779146103bb578063dd5ddfe8146103d0578063df32754b1461042d575b600080fd5b34156100a957600080fd5b61012d600480803590602001908201803590602001908080601f0160208091040260200160405190810160405280939291908181526020018383808284378201915050505050509190803560001916906020019091908035600019169060200190919080356000191690602001909190803560001916906020019091905050610442565b604051808615151515815260200185600019166000191681526020018460001916600019168152602001836000191660001916815260200182600019166000191681526020019550505050505060405180910390f35b341561018e57600080fd5b6101a86004808035600019169060200190919050506106ae565b60405180858152602001846000191660001916815260200183603260200280838360005b838110156101e75780820151818401526020810190506101cc565b5050505090500182603260200280838360005b838110156102155780820151818401526020810190506101fa565b5050505090500194505050505060405180910390f35b341561023657600080fd5b610262600480803573ffffffffffffffffffffffffffffffffffffffff16906020019091905050610880565b604051808215151515815260200191505060405180910390f35b341561028757600080fd5b61028f610971565b604051808273ffffffffffffffffffffffffffffffffffffffff1673ffffffffffffffffffffffffffffffffffffffff16815260200191505060405180910390f35b34156102dc57600080fd5b61032c600480803590602001908201803590602001908080601f0160208091040260200160405190810160405280939291908181526020018383808284378201915050505050509190505061099a565b604051808615151515815260200185600019166000191681526020018460001916600019168152602001836000191660001916815260200182600019166000191681526020019550505050505060405180910390f35b341561038d57600080fd5b6103b9600480803573ffffffffffffffffffffffffffffffffffffffff16906020019091905050610bc2565b005b34156103c657600080fd5b6103ce610c5b565b005b34156103db57600080fd5b610413600480803573ffffffffffffffffffffffffffffffffffffffff1690602001909190803560ff16906020019091905050610cee565b604051808215151515815260200191505060405180910390f35b341561043857600080fd5b610440610f24565b005b600080600080600080600160009054906101000a900473ffffffffffffffffffffffffffffffffffffffff1673ffffffffffffffffffffffffffffffffffffffff1663ec56a3736000604051602001526040518163ffffffff167c010000000000000000000000000000000000000000000000000000000002815260040180807f6c6f6300000000000000000000000000000000000000000000000000000000008152506020019050602060405180830381600087803b151561050457600080fd5b6102c65a03f1151561051557600080fd5b50505060405180519050905060008173ffffffffffffffffffffffffffffffffffffffff161415151561054757600080fd5b8073ffffffffffffffffffffffffffffffffffffffff16636908498d8c8c8c8c8c600060405160a001526040518663ffffffff167c010000000000000000000000000000000000000000000000000000000002815260040180806020018660001916600019168152602001856000191660001916815260200184600019166000191681526020018360001916600019168152602001828103825287818151815260200191508051906020019080838360005b838110156106145780820151818401526020810190506105f9565b50505050905090810190601f1680156106415780820380516001836020036101000a031916815260200191505b50965050505050505060a060405180830381600087803b151561066357600080fd5b6102c65a03f1151561067457600080fd5b5050506040518051906020018051906020018051906020018051906020018051905095509550955095509550509550955095509550959050565b6000806106b9610f66565b6106c1610f66565b6000600160009054906101000a900473ffffffffffffffffffffffffffffffffffffffff1673ffffffffffffffffffffffffffffffffffffffff1663ec56a3736000604051602001526040518163ffffffff167c010000000000000000000000000000000000000000000000000000000002815260040180807f6c6f6300000000000000000000000000000000000000000000000000000000008152506020019050602060405180830381600087803b151561077c57600080fd5b6102c65a03f1151561078d57600080fd5b50505060405180519050905060008173ffffffffffffffffffffffffffffffffffffffff16141515156107bf57600080fd5b8073ffffffffffffffffffffffffffffffffffffffff16636f6e08ab876000604051610cc001526040518263ffffffff167c0100000000000000000000000000000000000000000000000000000000028152600401808260001916600019168152602001915050610cc060405180830381600087803b151561084057600080fd5b6102c65a03f1151561085157600080fd5b505050604051805190602001805190602001806106400180610640016040529450945094509450509193509193565b600080600160009054906101000a900473ffffffffffffffffffffffffffffffffffffffff1673ffffffffffffffffffffffffffffffffffffffff16141580156109185750600160009054906101000a900473ffffffffffffffffffffffffffffffffffffffff1673ffffffffffffffffffffffffffffffffffffffff163373ffffffffffffffffffffffffffffffffffffffff1614155b15610926576000905061096c565b81600160006101000a81548173ffffffffffffffffffffffffffffffffffffffff021916908373ffffffffffffffffffffffffffffffffffffffff160217905550600190505b919050565b60008060009054906101000a900473ffffffffffffffffffffffffffffffffffffffff16905090565b600080600080600080600160009054906101000a900473ffffffffffffffffffffffffffffffffffffffff1673ffffffffffffffffffffffffffffffffffffffff1663ec56a3736000604051602001526040518163ffffffff167c010000000000000000000000000000000000000000000000000000000002815260040180807f6c6f6300000000000000000000000000000000000000000000000000000000008152506020019050602060405180830381600087803b1515610a5c57600080fd5b6102c65a03f11515610a6d57600080fd5b50505060405180519050905060008173ffffffffffffffffffffffffffffffffffffffff1614151515610a9f57600080fd5b8073ffffffffffffffffffffffffffffffffffffffff16638c2840cc88600060405160a001526040518263ffffffff167c01000000000000000000000000000000000000000000000000000000000281526004018080602001828103825283818151815260200191508051906020019080838360005b83811015610b30578082015181840152602081019050610b15565b50505050905090810190601f168015610b5d5780820380516001836020036101000a031916815260200191505b509250505060a060405180830381600087803b1515610b7b57600080fd5b6102c65a03f11515610b8c57600080fd5b50505060405180519060200180519060200180519060200180519060200180519050955095509550955095505091939590929450565b6000809054906101000a900473ffffffffffffffffffffffffffffffffffffffff1673ffffffffffffffffffffffffffffffffffffffff163373ffffffffffffffffffffffffffffffffffffffff161415610c5857806000806101000a81548173ffffffffffffffffffffffffffffffffffffffff021916908373ffffffffffffffffffffffffffffffffffffffff1602179055505b50565b600160009054906101000a900473ffffffffffffffffffffffffffffffffffffffff1673ffffffffffffffffffffffffffffffffffffffff163373ffffffffffffffffffffffffffffffffffffffff161415610cec57600160009054906101000a900473ffffffffffffffffffffffffffffffffffffffff1673ffffffffffffffffffffffffffffffffffffffff16ff5b565b6000806000809054906101000a900473ffffffffffffffffffffffffffffffffffffffff1673ffffffffffffffffffffffffffffffffffffffff163373ffffffffffffffffffffffffffffffffffffffff16141515610d505760009150610f1d565b600160009054906101000a900473ffffffffffffffffffffffffffffffffffffffff1673ffffffffffffffffffffffffffffffffffffffff1663ec56a3736000604051602001526040518163ffffffff167c010000000000000000000000000000000000000000000000000000000002815260040180807f7065726d730000000000000000000000000000000000000000000000000000008152506020019050602060405180830381600087803b1515610e0957600080fd5b6102c65a03f11515610e1a57600080fd5b50505060405180519050905060008173ffffffffffffffffffffffffffffffffffffffff161415610e4e5760009150610f1d565b8073ffffffffffffffffffffffffffffffffffffffff1663dd5ddfe885856000604051602001526040518363ffffffff167c0100000000000000000000000000000000000000000000000000000000028152600401808373ffffffffffffffffffffffffffffffffffffffff1673ffffffffffffffffffffffffffffffffffffffff1681526020018260ff1660ff16815260200192505050602060405180830381600087803b1515610eff57600080fd5b6102c65a03f11515610f1057600080fd5b5050506040518051905091505b5092915050565b336000806101000a81548173ffffffffffffffffffffffffffffffffffffffff021916908373ffffffffffffffffffffffffffffffffffffffff160217905550565b610640604051908101604052806032905b6000801916815260200190600190039081610f7757905050905600a165627a7a7230582004404d947e2382e26b1c2fbafa04f4f57ee3d9d6e997285ad4bc40cf6ee772840029",
  "source": "pragma solidity ^0.4.17;\r\n\r\nimport './Owned.sol';\r\nimport './DougEnabled.sol';\r\nimport './ContractProvider.sol';\r\nimport './Permissions.sol';\r\nimport './LetterOfCredit.sol';\r\n\r\ncontract LocManager is Owned, DougEnabled {\r\n\r\n  function LocManager() public {\r\n    owner = msg.sender;\r\n  }\r\n\r\n  function isDocumentRegistered(string sdocHash) public constant returns (bool, bytes32, bytes32, bytes32, bytes32) {\r\n    address loc = ContractProvider(DOUG).contracts(\"loc\");\r\n    require(loc != 0x0);\r\n    //address perms = ContractProvider(DOUG).contracts(\"perms\"); //gaan we werken met permissions?\r\n    //require(loc != 0x0 && perms != 0x0 && Permissions(perms).getPermission(msg.sender) == 1);\r\n    return LetterOfCredit(loc).isDocumentRegistered(sdocHash);\r\n  }\r\n\r\n  function registerDocument(string sdocHash, bytes32 title, bytes32 releaseDate, bytes32 authorName, bytes32 authorMail) public returns (bool, bytes32, bytes32, bytes32, bytes32) {\r\n    address loc = ContractProvider(DOUG).contracts(\"loc\");\r\n    require(loc != 0x0);\r\n    return LetterOfCredit(loc).registerDocument(sdocHash, title, releaseDate, authorName, authorMail);\r\n  }\r\n\r\n  function getDocumentListFromAuthor(bytes32 authorName) external constant returns (uint256 nrOfDocuments, bytes32 authorMail, bytes32[50] titles, bytes32[50] releaseDates) {\r\n    address loc = ContractProvider(DOUG).contracts(\"loc\");\r\n    require(loc != 0x0);\r\n    return LetterOfCredit(loc).getDocumentListFromAuthor(authorName);\r\n  }\r\n\r\n  //----------------------------\r\n\r\n  function setPermission(address addr, uint8 permLvl) public returns (bool res) {\r\n    if (msg.sender != owner) {\r\n      return false;\r\n    }\r\n    address perms = ContractProvider(DOUG).contracts(\"perms\");\r\n    if (perms == 0x0) {\r\n      return false;\r\n    }\r\n    return Permissions(perms).setPermission(addr, permLvl);\r\n  }\r\n}\r\n",
  "sourcePath": "C:\\Users\\nick\\Documents\\Howest\\Nick\\BDA-SEM2\\Blockchain Development II\\Taken\\DocumentStore\\contracts\\LocManager.sol",
  "compiler": {
    "name": "solc",
    "version": "0.4.18+commit.9cf6e910.Emscripten.clang"
  },
  "schemaVersion": "1.0.1",
  "updatedAt": "2018-04-07T12:41:35.756Z"
}