{
  "contractName": "Owned",
  "abi": [
    {
      "constant": false,
      "inputs": [],
      "name": "owned",
      "outputs": [],
      "payable": false,
      "stateMutability": "nonpayable",
      "type": "function"
    },
    {
      "constant": false,
      "inputs": [
        {
          "name": "newOwner",
          "type": "address"
        }
      ],
      "name": "changeOwner",
      "outputs": [],
      "payable": false,
      "stateMutability": "nonpayable",
      "type": "function"
    },
    {
      "constant": true,
      "inputs": [],
      "name": "getOwner",
      "outputs": [
        {
          "name": "",
          "type": "address"
        }
      ],
      "payable": false,
      "stateMutability": "view",
      "type": "function"
    }
  ],
  "bytecode": "0x6060604052341561000f57600080fd5b61022f8061001e6000396000f300606060405260043610610057576000357c0100000000000000000000000000000000000000000000000000000000900463ffffffff168063893d20e81461005c578063a6f9dae1146100b1578063df32754b146100ea575b600080fd5b341561006757600080fd5b61006f6100ff565b604051808273ffffffffffffffffffffffffffffffffffffffff1673ffffffffffffffffffffffffffffffffffffffff16815260200191505060405180910390f35b34156100bc57600080fd5b6100e8600480803573ffffffffffffffffffffffffffffffffffffffff16906020019091905050610128565b005b34156100f557600080fd5b6100fd6101c1565b005b60008060009054906101000a900473ffffffffffffffffffffffffffffffffffffffff16905090565b6000809054906101000a900473ffffffffffffffffffffffffffffffffffffffff1673ffffffffffffffffffffffffffffffffffffffff163373ffffffffffffffffffffffffffffffffffffffff1614156101be57806000806101000a81548173ffffffffffffffffffffffffffffffffffffffff021916908373ffffffffffffffffffffffffffffffffffffffff1602179055505b50565b336000806101000a81548173ffffffffffffffffffffffffffffffffffffffff021916908373ffffffffffffffffffffffffffffffffffffffff1602179055505600a165627a7a7230582019f1bf1d79c902a073bba7de0e814ff17e9854e6e62f08f230336d1d66a517650029",
  "source": "pragma solidity ^0.4.4;\n\ncontract Owned {\n  address owner;\n\n  modifier onlyOwner() {\n    if (msg.sender==owner) {\n      _;\n    }\n  }\n\n  function owned() public {\n    owner = msg.sender;\n  }\n\n  function changeOwner(address newOwner) public onlyOwner {\n    owner = newOwner;\n  }\n\n  function getOwner() public constant returns (address){\n    return owner;\n  }\n}\n",
  "sourcePath": "C:\\Users\\nick\\Documents\\Howest\\Nick\\BDA-SEM2\\Blockchain Development II\\Taken\\DocumentStore\\DocumentStore\\contracts\\Owned.sol",
  "compiler": {
    "name": "solc",
    "version": "0.4.21+commit.dfe3193c.Emscripten.clang"
  },
  "schemaVersion": "2.0.0",
  "updatedAt": "2018-04-12T22:50:44.687Z"
}