{
  "contractName": "Permissions",
  "abi": [
    {
      "constant": false,
      "inputs": [
        {
          "name": "dougAddr",
          "type": "address"
        }
      ],
      "name": "setDougAddress",
      "outputs": [
        {
          "name": "result",
          "type": "bool"
        }
      ],
      "payable": false,
      "stateMutability": "nonpayable",
      "type": "function"
    },
    {
      "constant": true,
      "inputs": [
        {
          "name": "addr",
          "type": "address"
        }
      ],
      "name": "getPermission",
      "outputs": [
        {
          "name": "perm",
          "type": "uint8"
        }
      ],
      "payable": false,
      "stateMutability": "view",
      "type": "function"
    },
    {
      "constant": true,
      "inputs": [],
      "name": "isLocManager",
      "outputs": [
        {
          "name": "",
          "type": "bool"
        }
      ],
      "payable": false,
      "stateMutability": "view",
      "type": "function"
    },
    {
      "constant": false,
      "inputs": [],
      "name": "remove",
      "outputs": [],
      "payable": false,
      "stateMutability": "nonpayable",
      "type": "function"
    },
    {
      "constant": false,
      "inputs": [
        {
          "name": "addr",
          "type": "address"
        },
        {
          "name": "perm",
          "type": "uint8"
        }
      ],
      "name": "setPermission",
      "outputs": [
        {
          "name": "res",
          "type": "bool"
        }
      ],
      "payable": false,
      "stateMutability": "nonpayable",
      "type": "function"
    }
  ],
  "bytecode": "0x6060604052341561000f57600080fd5b61087c8061001e6000396000f30060606040526004361061006d576000357c0100000000000000000000000000000000000000000000000000000000900463ffffffff16806380e2653e1461007257806383c1cd8a146100c35780639ecfd08a14610116578063a7f4377914610143578063dd5ddfe814610158575b600080fd5b341561007d57600080fd5b6100a9600480803573ffffffffffffffffffffffffffffffffffffffff169060200190919050506101b5565b604051808215151515815260200191505060405180910390f35b34156100ce57600080fd5b6100fa600480803573ffffffffffffffffffffffffffffffffffffffff169060200190919050506102a3565b604051808260ff1660ff16815260200191505060405180910390f35b341561012157600080fd5b61012961047a565b604051808215151515815260200191505060405180910390f35b341561014e57600080fd5b6101566105d2565b005b341561016357600080fd5b61019b600480803573ffffffffffffffffffffffffffffffffffffffff1690602001909190803560ff16906020019091905050610663565b604051808215151515815260200191505060405180910390f35b6000806000809054906101000a900473ffffffffffffffffffffffffffffffffffffffff1673ffffffffffffffffffffffffffffffffffffffff161415801561024b57506000809054906101000a900473ffffffffffffffffffffffffffffffffffffffff1673ffffffffffffffffffffffffffffffffffffffff163373ffffffffffffffffffffffffffffffffffffffff1614155b15610259576000905061029e565b816000806101000a81548173ffffffffffffffffffffffffffffffffffffffff021916908373ffffffffffffffffffffffffffffffffffffffff160217905550600190505b919050565b6000806102ae61047a565b15156102b957600080fd5b6000809054906101000a900473ffffffffffffffffffffffffffffffffffffffff1673ffffffffffffffffffffffffffffffffffffffff1663ec56a3736000604051602001526040518163ffffffff167c010000000000000000000000000000000000000000000000000000000002815260040180807f7065726d736462000000000000000000000000000000000000000000000000008152506020019050602060405180830381600087803b151561037157600080fd5b6102c65a03f1151561038257600080fd5b50505060405180519050905060008173ffffffffffffffffffffffffffffffffffffffff16141515156103b457600080fd5b8073ffffffffffffffffffffffffffffffffffffffff1663b409ea4e846000604051602001526040518263ffffffff167c0100000000000000000000000000000000000000000000000000000000028152600401808273ffffffffffffffffffffffffffffffffffffffff1673ffffffffffffffffffffffffffffffffffffffff168152602001915050602060405180830381600087803b151561045757600080fd5b6102c65a03f1151561046857600080fd5b50505060405180519050915050919050565b60008060008060009054906101000a900473ffffffffffffffffffffffffffffffffffffffff1673ffffffffffffffffffffffffffffffffffffffff161415156105c9576000809054906101000a900473ffffffffffffffffffffffffffffffffffffffff1673ffffffffffffffffffffffffffffffffffffffff1663ec56a3736000604051602001526040518163ffffffff167c010000000000000000000000000000000000000000000000000000000002815260040180807f6c6f636d616e61676572000000000000000000000000000000000000000000008152506020019050602060405180830381600087803b151561057657600080fd5b6102c65a03f1151561058757600080fd5b5050506040518051905090508073ffffffffffffffffffffffffffffffffffffffff163373ffffffffffffffffffffffffffffffffffffffff161491506105ce565b600091505b5090565b6000809054906101000a900473ffffffffffffffffffffffffffffffffffffffff1673ffffffffffffffffffffffffffffffffffffffff163373ffffffffffffffffffffffffffffffffffffffff161415610661576000809054906101000a900473ffffffffffffffffffffffffffffffffffffffff1673ffffffffffffffffffffffffffffffffffffffff16ff5b565b60008061066e61047a565b151561067d5760009150610849565b6000809054906101000a900473ffffffffffffffffffffffffffffffffffffffff1673ffffffffffffffffffffffffffffffffffffffff1663ec56a3736000604051602001526040518163ffffffff167c010000000000000000000000000000000000000000000000000000000002815260040180807f7065726d736462000000000000000000000000000000000000000000000000008152506020019050602060405180830381600087803b151561073557600080fd5b6102c65a03f1151561074657600080fd5b50505060405180519050905060008173ffffffffffffffffffffffffffffffffffffffff16141561077a5760009150610849565b8073ffffffffffffffffffffffffffffffffffffffff1663dd5ddfe885856000604051602001526040518363ffffffff167c0100000000000000000000000000000000000000000000000000000000028152600401808373ffffffffffffffffffffffffffffffffffffffff1673ffffffffffffffffffffffffffffffffffffffff1681526020018260ff1660ff16815260200192505050602060405180830381600087803b151561082b57600080fd5b6102c65a03f1151561083c57600080fd5b5050506040518051905091505b50929150505600a165627a7a72305820567e90fc45770500379feca770e4882db352225a0b47b00cc94c1467468e039b0029",
  "source": "pragma solidity ^0.4.17;\n\nimport './LocManagerEnabled.sol';\nimport './ContractProvider.sol';\nimport './PermissionsDb.sol';\n\ncontract Permissions is LocManagerEnabled {\n\n  function setPermission(address addr, uint8 perm) public returns (bool res) {\n    if (!isLocManager()) {\n      return false;\n    }\n    address permdb = ContractProvider(DOUG).contracts(\"permsdb\");\n    if (permdb == 0x0) {\n      return false;\n    }\n    return PermissionsDb(permdb).setPermission(addr, perm);\n  }\n\n  function getPermission(address addr) public view returns (uint8 perm) {\n    require(isLocManager());\n    address permdb = ContractProvider(DOUG).contracts(\"permsdb\");\n    require(permdb != 0x0);\n    return PermissionsDb(permdb).perms(addr);\n  }\n\n}\n",
  "sourcePath": "C:\\Users\\nick\\Documents\\Howest\\Nick\\BDA-SEM2\\Blockchain Development II\\Taken\\DocumentStore\\contracts\\Permissions.sol",
  "compiler": {
    "name": "solc",
    "version": "0.4.18+commit.9cf6e910.Emscripten.clang"
  },
  "schemaVersion": "1.0.1",
  "updatedAt": "2018-04-07T12:41:35.740Z"
}