{
  "contractName": "PermissionsDb",
  "abi": [
    {
      "constant": false,
      "inputs": [
        {
          "name": "dougAddr",
          "type": "address"
        }
      ],
      "name": "setDougAddress",
      "outputs": [
        {
          "name": "result",
          "type": "bool"
        }
      ],
      "payable": false,
      "stateMutability": "nonpayable",
      "type": "function"
    },
    {
      "constant": false,
      "inputs": [],
      "name": "remove",
      "outputs": [],
      "payable": false,
      "stateMutability": "nonpayable",
      "type": "function"
    },
    {
      "constant": true,
      "inputs": [
        {
          "name": "",
          "type": "address"
        }
      ],
      "name": "perms",
      "outputs": [
        {
          "name": "",
          "type": "uint8"
        }
      ],
      "payable": false,
      "stateMutability": "view",
      "type": "function"
    },
    {
      "constant": false,
      "inputs": [
        {
          "name": "addr",
          "type": "address"
        },
        {
          "name": "perm",
          "type": "uint8"
        }
      ],
      "name": "setPermission",
      "outputs": [
        {
          "name": "res",
          "type": "bool"
        }
      ],
      "payable": false,
      "stateMutability": "nonpayable",
      "type": "function"
    }
  ],
  "bytecode": "0x6060604052341561000f57600080fd5b6105038061001e6000396000f300606060405260043610610062576000357c0100000000000000000000000000000000000000000000000000000000900463ffffffff16806380e2653e14610067578063a7f43779146100b8578063b409ea4e146100cd578063dd5ddfe814610120575b600080fd5b341561007257600080fd5b61009e600480803573ffffffffffffffffffffffffffffffffffffffff1690602001909190505061017d565b604051808215151515815260200191505060405180910390f35b34156100c357600080fd5b6100cb61026b565b005b34156100d857600080fd5b610104600480803573ffffffffffffffffffffffffffffffffffffffff169060200190919050506102fc565b604051808260ff1660ff16815260200191505060405180910390f35b341561012b57600080fd5b610163600480803573ffffffffffffffffffffffffffffffffffffffff1690602001909190803560ff1690602001909190505061031c565b604051808215151515815260200191505060405180910390f35b6000806000809054906101000a900473ffffffffffffffffffffffffffffffffffffffff1673ffffffffffffffffffffffffffffffffffffffff161415801561021357506000809054906101000a900473ffffffffffffffffffffffffffffffffffffffff1673ffffffffffffffffffffffffffffffffffffffff163373ffffffffffffffffffffffffffffffffffffffff1614155b156102215760009050610266565b816000806101000a81548173ffffffffffffffffffffffffffffffffffffffff021916908373ffffffffffffffffffffffffffffffffffffffff160217905550600190505b919050565b6000809054906101000a900473ffffffffffffffffffffffffffffffffffffffff1673ffffffffffffffffffffffffffffffffffffffff163373ffffffffffffffffffffffffffffffffffffffff1614156102fa576000809054906101000a900473ffffffffffffffffffffffffffffffffffffffff1673ffffffffffffffffffffffffffffffffffffffff16ff5b565b60016020528060005260406000206000915054906101000a900460ff1681565b60008060008060009054906101000a900473ffffffffffffffffffffffffffffffffffffffff1673ffffffffffffffffffffffffffffffffffffffff161415156104cb576000809054906101000a900473ffffffffffffffffffffffffffffffffffffffff1673ffffffffffffffffffffffffffffffffffffffff1663ec56a3736000604051602001526040518163ffffffff167c010000000000000000000000000000000000000000000000000000000002815260040180807f7065726d730000000000000000000000000000000000000000000000000000008152506020019050602060405180830381600087803b151561041857600080fd5b6102c65a03f1151561042957600080fd5b5050506040518051905090508073ffffffffffffffffffffffffffffffffffffffff163373ffffffffffffffffffffffffffffffffffffffff1614156104ca5782600160008673ffffffffffffffffffffffffffffffffffffffff1673ffffffffffffffffffffffffffffffffffffffff16815260200190815260200160002060006101000a81548160ff021916908360ff160217905550600191506104d0565b5b600091505b50929150505600a165627a7a72305820855e66b6bf97a5c629811f647be907ede5cfac6023cf77416c24b936afd4fb190029",
  "source": "pragma solidity ^0.4.17;\n\nimport './DougEnabled.sol';\nimport './ContractProvider.sol';\n\ncontract PermissionsDb is DougEnabled {\n  mapping (address => uint8) public perms;\n\n  function setPermission(address addr, uint8 perm) public returns (bool res) {\n    if (DOUG != 0x0) {\n      address permC = ContractProvider(DOUG).contracts(\"perms\");\n      if (msg.sender == permC) {\n        perms[addr] = perm;\n        return true;\n      }\n    }\n    return false;\n  }\n}\n",
  "sourcePath": "C:\\Users\\nick\\Documents\\Howest\\Nick\\BDA-SEM2\\Blockchain Development II\\Taken\\DocumentStore\\contracts\\PermissionsDb.sol",
  "compiler": {
    "name": "solc",
    "version": "0.4.18+commit.9cf6e910.Emscripten.clang"
  },
  "schemaVersion": "1.0.1",
  "updatedAt": "2018-04-07T12:41:35.734Z"
}